:100000000C9463000C948B000C948B000C948B006C
:100010000C948B000C948B000C948B000C94831E1E
:100020000C948B000C948B000C948B000C948B0024
:100030000C948B000C948B000C948B000C948B0014
:100040000C941F1E0C948B000C94051F0C94DF1E47
:100050000C948B000C948B000C948B000C948B00F4
:100060000C94391C0C948B00020000000024002723
:10007000002A0000000000250028002B00000000DE
:1000800000230026002900040404040404040402DC
:100090000202020202030303030303010204081025
:1000A00020408001020408102001020408102000F2
:1000B0000000080002010000030407000000000027
:1000C000000000001A1C11241FBECFEFD8E0DEBFD5
:1000D000CDBF13E0A0E0B1E0E8E6F9E402C005908E
:1000E0000D92A43DB107D9F725E0A4EDB3E001C01E
:1000F0001D92AC37B207E1F710E0C3E6D0E004C0D0
:100100002197FE010E94A81FC236D107C9F70E949D
:100110007A1E0C94B2240C94000085EC8093BC00F1
:10012000109256050895811104C085E88093BC00A3
:10013000089585EC8093BC00089590932F058093DB
:100140002E05089590933305809332050895AC01F0
:1001500020913005260F3327331F21323105F4F467
:10016000809156058430E1F490E00FC0E0913005B5
:10017000292F30E0E20FF32FF11D240F351FD90195
:100180002C91E25FFA4F20839F5F961778F380915E
:100190003005680F6093300580E0089581E0089590
:1001A00082E00895089508950895E091F9048091FA
:1001B000F804E81730F4F0E0E852FB4F808190E05B
:1001C00008958FEF9FEF08959091F9048091F804BE
:1001D000981758F4E92FF0E0E852FB4F208130E007
:1001E0009F5F9093F904C90108952FEF3FEFFBCF74
:1001F0008091F8049091F904891B990B0895CF928E
:10020000DF92EF92FF920F931F93CF93DF938C01B6
:100210006B017A018091D704882399F0D0E0C0E087
:10022000CE15DF0590F4D801ED91FC910190F0819D
:10023000E02DD601AC0FBD1F6C91C8010995219628
:10024000EFCF642FC6010E94A700C701DF91CF91B5
:100250001F910F91FF90EF90DF90CF900895CF9373
:10026000DF931F92CDB7DEB7FC0169839091D7046D
:100270009923F1F09091FA04903250F081E090E0EF
:100280009383828390E080E00F90DF91CF91089577
:100290008091FB04E82FF0E0E954FB4F99819083B3
:1002A0008F5F8093FB048093FA0481E090E0ECCFB1
:1002B00061E0CE0101960E94A70081E090E0E4CFCA
:1002C00081E08093D7046093B6041092FB041092EF
:1002D000FA040895FC011382128288EE93E0A0E0F4
:1002E000B0E084839583A683B78388E891E0918307
:1002F00080830895019709F008956F3F7F4FE1F7DC
:100300008CEF94E00E946A01F7CF08958330B1F03A
:1003100060F08730E9F0883009F1843021F5E0E8B9
:10032000F0E080818F7D80830895813069F0823094
:1003300021F484B58F7D84BD08950895E0E8F0E050
:1003400080818F778083089584B58F7784BD0895E9
:10035000E0EBF0E080818F7780830895E0EBF0E0C0
:1003600080818F7D80830895CF93DF93282F30E0A5
:10037000F901E155FF4F8491F901E556FF4FD49102
:10038000F901E957FF4FC491CC23B1F081110EC0A0
:10039000EC2FF0E0EE0FFF1FE358FF4FA591B49153
:1003A000EC91ED2331F490E080E008C00E948601DA
:1003B000EFCF81E090E002C090E080E0DF91CF914C
:1003C00008951F93CF93DF93282F30E0F901E15573
:1003D000FF4F8491F901E556FF4F1491F901E95758
:1003E000FF4FC491CC23A9F0D62F811116C0EC2F5A
:1003F000F0E0EE0FFF1FED58FF4FA591B4918FB7BE
:10040000F894D1110DC09C91E12FE095E923EC9374
:100410008FBFDF91CF911F9108950E948601E7CF92
:10042000EC91E12BEC93F4CFECEBF0E080818A7B54
:10043000808360E082E10E94E10160E083E10E944C
:10044000E10108951092560581E0809358051092BD
:10045000570561E082E10E94E10161E083E10E94D1
:10046000E101E9EBF0E080818E7F808380818D7FE8
:10047000808388E48093B80085E48093BC0008956D
:10048000EF92FF920F931F93CF93DF9391E090939E
:100490000D05811107C0DF91CF911F910F91FF9042
:1004A000EF900895C8EBD0E0F8800AEB10E0F80177
:1004B000E0800E9414020E942202F801E082F88289
:1004C000EACF1092F9041092F8041092FB041092F3
:1004D000FA040E94220282ED90E00E949D0083EDCA
:1004E00090E00E94A2000895CF93DF9390E0FC017A
:1004F000E556FF4F249189579F4FFC018491882333
:1005000019F190E0880F991FFC01E759FF4FA59161
:10051000B491FC01ED58FF4FC591D491662349F089
:100520006230A9F08FB7F894EC91E22BEC938FBF77
:100530000BC09FB7F8948C91E22FE0958E238C939B
:100540008881E823E8839FBFDF91CF9108959FB70B
:10055000F8943C91822F809583238C93E881E22B41
:10056000E8839FBFF1CF789484B5826084BD84B561
:10057000816084BD85B5826085BD85B5816085BD9E
:10058000EEE6F0E0808181608083E1E8F0E01082B7
:10059000808182608083808181608083E0E8F0E0F8
:1005A000808181608083E1EBF0E0808184608083E2
:1005B000E0EBF0E0808181608083EAE7F0E0808119
:1005C0008460808380818260808380818160808379
:1005D0008081806880831092C100089582309105E7
:1005E00038F0880F991F880F991F05970197F1F729
:1005F00008953FB7F8948091B2049091B304A0910C
:10060000B404B091B50426B5A89B05C02F3F19F0DE
:100610000196A11DB11D3FBFBA2FA92F982F882782
:10062000BC01CD01620F711D811D911D660F771FE9
:10063000881F991F660F771F881F991F08954F9273
:100640005F926F927F928F929F92AF92BF92EF9242
:10065000FF920F931F93CF93DF93413280F081E09D
:10066000DF91CF911F910F91FF90EF90BF90AF90CE
:100670009F908F907F906F905F904F900895D22FB2
:10068000C42F7B01182F0E94F9024B015C0190914D
:100690005605992329F18091090590910A05A091A9
:1006A0000B05B0910C05892B8A2B8B2B81F30E94B3
:1006B000F902681979098A099B0940900905509047
:1006C0000A0560900B0570900C05461657066806E3
:1006D0007906E8F6809108050E94400285E0C0CFC7
:1006E00082E080935605009358058FEF809355055F
:1006F00010927A05C09379050AC0E92FF0E0D7017E
:10070000AE0FBF1F8C91E75AFA4F80839F5F9C17F3
:10071000A0F310927B05812F90E0880F991F109114
:100720007B05812B80937B05809157058130A1F15A
:1007300085EE8093BC000E94F9024B015C01DD2331
:1007400009F462C080915605823009F05DC0809145
:10075000090590910A05A0910B05B0910C05892B14
:100760008A2B8B2B61F30E94F902681979098A0997
:100770009B090091090510910A0520910B05309104
:100780000C050617170728073907C8F680910805D2
:100790000E94400285E064CF109257050E94F90242
:1007A0004B015C0104C08091BC0083FF29C0809193
:1007B0007B058093BB008091090590910A05A0916B
:1007C0000B05B0910C05892B8A2B8B2B61F30E94B2
:1007D000F902681979098A099B09009109051091A4
:1007E0000A0520910B0530910C05061717072807FD
:1007F0003907C8F6809108050E94400285E030CF95
:1008000085EC8093BC0097CF809155058F3F61F0B8
:1008100080915505803251F080915505803311F05B
:1008200084E01ECF83E01CCF80E01ACF82E018CF97
:100830000F934091FA04062F21E067EB74E080915A
:10084000B6040E941F031092FB041092FA04109247
:10085000D7040F91089561E00E94180408958F92C3
:100860009F92AF92BF92CF92DF92EF92FF926B0175
:100870007C010E94F9024B015C011BC021E0C21AFD
:10088000D108E108F10888EE880E83E0981EA11CCB
:10089000B11CC114D104E104F10459F00E94F90221
:1008A000681979098A099B09683E73408105910599
:1008B00028F7C114D104E104F10459F7FF90EF9037
:1008C000DF90CF90BF90AF909F908F9008952FB7FB
:1008D000F8946091AE047091AF048091B00490914F
:1008E000B1042FBF08950895813039F018F0823097
:1008F00051F0089510926E000895EFE6F0E08081C7
:100900008D7F80830895E0E7F0E080818D7F808394
:1009100081E08093B000E1EBF0E08081887F84602B
:1009200080831092B3000895CF93C82F30E020E069
:10093000121613069CF0F901EB5AFE4F80818C17BA
:1009400019F02F5F3F4FF4CFF901E859FF4F849121
:100950002B5A3E4F9FEFF901908301C08FEF0E9409
:10096000740460E08C2F0E94E101CF910895282F3C
:10097000F0E0E0E01E161F0664F0DF01AB5ABE4F48
:100980009C91921711F03196F5CFE859FF4F849161
:100990000895F0E0E0E01E161F068CF0DF01AB5A70
:1009A000BE4F9C919F3F11F03196F5CFDF01AB5ABE
:1009B000BE4F2C93E859FF4FE4918E2F01C08FEF6B
:1009C0008F3F31F0813001F1823009F43BC0811159
:1009D000089514BC15BC94B5926094BD95B5916012
:1009E00095BD30E0F901E957FF4FE491F0E0EE0FDB
:1009F000FF1FED58FF4F4591549125563F4FF90188
:100A0000249120939D04089510928000E1E8F0E085
:100A1000108290819860908390819160908330E003
:100A2000F901E957FF4FE491F0E0EE0FFF1FED5899
:100A3000FF4F4591549125563F4FF9012491209342
:100A40009C040895A0EBB0E01C92E1EBF0E0108272
:100A50009C9192609C9390819160908330E0F90129
:100A6000E957FF4FE491F0E0EE0FFF1FED58FF4F05
:100A7000459154915093A7044093A60425563F4FA7
:100A8000F90124912093A804A3CF4F925F926F9213
:100A90007F928F929F92AF92BF92CF92DF92EF920E
:100AA000FF920F931F93CF93DF9300D000D01F923C
:100AB000CDB7DEB7F82E8B0149015A010E94B70469
:100AC0008D8388230CF418C161E08F2D0E9474027D
:100AD0008D81882359F1823049F1712C612C60E0BD
:100AE00072E18AE790E0A30198010E94891F6901E1
:100AF0007A0181E0C81AD108E108F108C114D104D3
:100B000081E0E806F10408F416C168E478EE81E0BB
:100B100090E0A30198010E94891F69017A0181E098
:100B2000C81AD108E108F10893E006C12801712C28
:100B3000612C60E072E18AE790E0A30198010E94D5
:100B4000891F29833A834B835C8369017A0181E0A1
:100B5000C81AD108E108F1088FEFC816D104E104E2
:100B6000F10409F008F4A4C060E472E48FE090E0BE
:100B7000A30198010E94891F69017A0181E0C81AC6
:100B8000D108E108F1088D81823009F45AC092E061
:100B90008FEFC816D104E104F10409F008F489C00C
:100BA00068E478EE81E090E0A30192010E94891F41
:100BB00069017A0181E0C81AD108E108F1088D8144
:100BC000811159C093E08D81823009F456C08FEFB6
:100BD000C816D104E104F10409F008F46AC062E126
:100BE0007AE780E090E0A30192010E94891F6901E9
:100BF0007A0181E0C81AD108E108F1088D818111DC
:100C000055C094E08FEFC816D104E104F10409F057
:100C100008F44FC0C980DA80EB80FC800B2EBAE06C
:100C2000F594E794D794C794BA95D1F7B02D81E0A5
:100C3000C81AD108E108F1088D81811173C095E0CF
:100C400038C08FEFC816D104E104F10491F088F0A8
:100C500060E970ED83E090E0A30198010E94891F94
:100C600069017A0181E0C81AD108E108F10893E02E
:100C70008FCF92E08DCF94E0A6CF8FEFC816D1042E
:100C8000E104F10409F008F4A2CF64E274EF80E01B
:100C900090E0A30192010E94891F69017A0181E01D
:100CA000C81AD108E108F10895E091CF96E0AACFE3
:100CB00091E08D81811138C085B5887F892B85BDF4
:100CC00081149104A104B10409F440C0D801AA0F11
:100CD000BB1FA50194010E94B51F28EE33E040E040
:100CE00050E00E94671F8D81813009F442C082303C
:100CF00009F451C0882371F10F900F900F900F905D
:100D00000F90DF91CF911F910F91FF90EF90DF90A7
:100D1000CF90BF90AF909F908F907F906F905F909B
:100D20004F90089597E0C5CFE1EBF0E08081887F98
:100D3000892B8083C5CF91E08D81813009F6E1E870
:100D4000F0E08081887F892B8083BACF2FEF3FEF3F
:100D5000A901C9CFC7BC2093A2043093A304409338
:100D6000A4045093A504EEE6F0E0808182608083C5
:100D7000C3CFD0928900C092880020939E04309304
:100D80009F044093A0045093A104EFE6F0E080811B
:100D900082608083B1CFC092B3002093A9043093C6
:100DA000AA044093AB045093AC04E0E7F0E08081E8
:100DB00082608083A1CFCF92DF92EF92FF920F9358
:100DC0001F93CF93DF938C01DB01D0E0C0E07A0169
:100DD00081E0E81AF108452BA1F0F80180819181AA
:100DE000FC01208131816D01FFEFCF1ADF0A6C9188
:100DF000C801F9010995892B21F02196A701D60197
:100E0000E6CFCE01DF91CF911F910F91FF90EF9030
:100E1000DF90CF900895019709F008956F3F7F4FBD
:100E2000E1F7EFEFF3E01382128288EE93E0A0E0A7
:100E3000B0E084839583A683B78386E791E09183AE
:100E4000808385EC90E09587848784EC90E0978799
:100E5000868780EC90E0918B808B81EC90E0938B87
:100E6000828B82EC90E0958B848B86EC90E0978B64
:100E7000868B118E128E138E148ECFCFFC01938D24
:100E8000848D981720F4891B990B019708952FE3FF
:100E900030E0291B3109820F932F911D0895FC0129
:100EA000918D828D981761F0A28DAE0FBF2FB11D6D
:100EB0005D968C91928D9F5F9F73928F90E00895C5
:100EC0008FEF9FEF0895FC01918D828D981731F07F
:100ED000828DE80FF11D858D90E008958FEF9FEFD3
:100EE0000895FC01218D30E0205C3F4F828DA901E7
:100EF000481B5109CA018F73992708958FEF93E01A
:100F00000E94710721E0892B09F420E0822F0895C7
:100F1000CF92DF92EF92FF921F93CF93DF93EC017A
:100F20006A017B01122F60E079E08DE390E0A70178
:100F300096010E94671F21503109410951095695B8
:100F4000479537952795E889F98982E08083C11410
:100F500081EED806E104F10421F0211580E1380783
:100F600098F0E889F989108260E874E88EE190E0F1
:100F7000A70196010E94671F2150310941095109BB
:100F80005695479537952795EC85FD853083EE85F9
:100F9000FF852083188EEC89FD891083EA89FB89FF
:100FA000808180618083EA89FB8980818860808379
:100FB000EA89FB89808180688083EA89FB89808156
:100FC0008F7D8083DF91CF911F91FF90EF90DF9015
:100FD000CF900895FC01A48DA80FB92FB11DA35A7D
:100FE000BF4F2C91848D90E001968F739078848F01
:100FF000A689B7892C93A089B1898C91837080646C
:101000008C93938D848D981308950288F389E02D35
:1010100080818F7D8083F8CF0F931F93CF93DF93D1
:10102000EC0181E0888F9B8D8C8D9817B1F0062F95
:101030008B8D90E001968F739078182F8C8D811393
:101040001EC00FB607FCFACFE889F989808185FFB9
:10105000F5CFCE010E94EA07F1CFE889F9898081B6
:1010600085FFE5CF9FB7F894EE89FF896083E88913
:10107000F98980818370806480839FBF10C0EB8D6D
:10108000EC0FFD2FF11DE35AFF4F00839FB7F8943B
:101090001B8FEA89FB898081806280839FBF81E00A
:1010A00090E0DF91CF911F910F910895CF93DF933F
:1010B000EC01888D811104C00DC00FB607FE0DC074
:1010C000EA89FB89808185FDF8CFA889B9898C914F
:1010D00086FFF3CFDF91CF910895808185FFF0CF18
:1010E000E889F989808185FFEBCFCE010E94EA076C
:1010F000E7CF80E090E0892B21F00E947E078111EC
:1011000001C008950E940000FCCF882311F0815097
:1011100008958FEF860F089590E0019670E00E9489
:10112000531F0895FF920F931F93CF93DF93DC011A
:10113000662339F11796FC90179710E000E0189697
:10114000EC911897F0E0EE0FFF1FE358FF4FC591A9
:10115000D491988117968C91179798239F1113C05B
:10116000C801019630E020E01D964D915D916D9192
:101170007C915097041715072607370768F48C01F0
:10118000DECFF12CDACFB80190E080E0DF91CF9193
:101190001F910F91FF9008956FEF7FEFCB01F6CF76
:1011A0004F925F926F927F928F929F92AF92BF9277
:1011B000CF92DF92EF92FF920F931F93CF93DF9323
:1011C000CDB7DEB7C054D1400FB6F894DEBF0FBE26
:1011D000CDBF6C01162F0E946704111113C0F601D8
:1011E00001851285238534854B015C01801A910AA3
:1011F000A20AB30A95018401003D1740210531057B
:1012000008F457C0F6016187728783879487148238
:10121000138212821182108262E085810E94740220
:1012200061E070E080E090E00E942F0461E0F60150
:1012300085810E94740260E0F60185810E94E101CF
:10124000F601868185518230B0F58CE494E00E94ED
:10125000EE0262E0F60185810E947402F601828945
:1012600090E00E94EE02F89460E0C6010E949208AD
:101270006F3F7F4F8F4F9F4F29F5F601118A78946A
:1012800080E0C05CDE4F0FB6F894DEBF0FBECDBF6E
:10129000DF91CF911F910F91FF90EF90DF90CF9052
:1012A000BF90AF909F908F907F906F905F904F9086
:1012B00008958189E6CF64E170E080E090E00E94CB
:1012C0002F04C7CF61E0C6010E9492086F3F7F4F95
:1012D0008F4F9F4F79F110E000E0003511056CF55C
:1012E00060E0C6010E949208F801EE0FFF1FEE0FAA
:1012F000FF1F88248394912C8C0E9D1EE80DF91DF0
:10130000608371838283938378012FEFE21AF20A5C
:1013100061E0C6010E949208F701EE0FFF1FEE0F79
:10132000FF1FE80DF91D60837183828393830E5F35
:101330001F4FD3CFF601118AA2CF789430E020E07E
:1013400008C0F601118A80E09CCF079635C02F5F58
:101350003F4F283231050CF044C0F901EE0FFF1F5A
:10136000EE0FFF1FEE0FFF1F41E050E04C0F5D1F1F
:10137000E40FF51F80809180A280B380C901880F9F
:10138000991F0196880F991F880F991F840F951F29
:10139000FC014080518062807380FFEF8F169F06B2
:1013A000AF06BF0671F24FEF44165406640674068A
:1013B00041F2C90133234CF2959587959595879510
:1013C00095958795F601E80FF91F4081440F4083FA
:1013D00084149504A604B70408F0B9CF4160408393
:1013E000B6CFF601448120818181280F3327331F36
:1013F0008281280F311D8381820F932F911D9927A0
:101400004817190619F0118A80E03BCF81E0818BE3
:1014100038CFCF92DF92EF92FF92CF93DF93EC0120
:101420000E94D008882391F18E818B30D0F18D30CD
:1014300090F085518230A8F568818981762F682FD8
:1014400090E080E00E9486202DEC3CEC4CEC5DE3CB
:101450000E9414211FC0688170E090E080E00E942B
:1014600088206B017C01698170E090E080E00E943F
:1014700088202DEC3CEC4CEC5DE30E9414219B0198
:10148000AC01C701B6010E94E41F04C060E070E037
:1014900080EC9FE7DF91CF91FF90EF90DF90CF90AE
:1014A000089560E070E080EC9FE7F4CFCB01BA01D3
:1014B00026E636E646EE5FE30E94142120E030E0A7
:1014C00040E052E40E94E41F0895CF92DF92EF9231
:1014D000FF920F931F93CF93DF93EC01162F642F8E
:1014E0000E94D008882309F481C08E818C3009F4D1
:1014F00055C040F58B3009F086C06A8170E090E0FD
:1015000080E00E9486206B017C010B810023DCF1CE
:101510000F70602F70E090E080E00E9488202DEC3A
:101520003CEC4CEC5DE30E941421A70196010E9463
:10153000E41F112309F45EC0AB01BC01CE010E947F
:10154000560A58C08551823008F05DC00A81602F6C
:1015500070E0762F662766277F778B81682B90E077
:1015600080E00E9486202DEC3CEC4CEC5DE30E9478
:1015700014210023CCF11123E9F1AB01BC01CE0110
:101580000E94560A37C0AC019B0160E070E080E821
:101590009FEB0E94E31F6B017C01BACF0A81602F91
:1015A00070E090E080E00E9486206B017C016B81FE
:1015B0006F7070E090E080E00E9488202DEC3CECA1
:1015C0004CEC5DE30E941421A70196010E94E41FE8
:1015D000002344F0112371F0AB01BC01CE010E9445
:1015E000560A08C09058F6CF9058C5CF60E070E01A
:1015F00080EC9FE7DF91CF911F910F91FF90EF90CB
:10160000DF90CF90089560E070E080EC9FE7F2CF2C
:101610001F93CF93DF93EC01162F62E08D810E9420
:1016200074020E946704605D7740810991096987AF
:101630007A878B879C871A8BDF91CF911F910895B2
:10164000DC0115966C93159716964C93169770E0DF
:10165000FB01E556FF4FE4911796EC9317976957F6
:101660007F4FFB01649118966C93189740E85EE3F6
:1016700060E070E01D964D935D936D937C93509761
:101680000895CF93DF93EC01822F798368835B8386
:101690004A832C833D8360E00E94E10161E0888100
:1016A0000E94E10184E090E00E94EE02DF91CF9180
:1016B0000895FF920F931F93CF93DF938C0160E007
:1016C000FC0181810E947402D0E0C0E0F12CC8309E
:1016D000D10504F561E0F80182810E94E10181E019
:1016E00090E00E94EE0260E0F80182810E94E10138
:1016F00081E090E00E94EE02F80181810E94B40135
:1017000099270C2E02C0880F991F0A94E2F7F82A35
:101710002196DDCF8F2DDF91CF911F910F91FF90FB
:101720000895EF92FF920F931F93CF93DF938C0155
:10173000E62EF42E61E0FC0181810E947402D0E06B
:10174000C0E00AC060E0F80182810E94E10181E00E
:1017500090E00E94EE022196C830D1052CF56E2D46
:1017600070E00C2E02C0759567950A94E2F76170DF
:10177000F80181810E94E10181E090E00E94EE0287
:1017800061E0F80182810E94E10181E090E00E9425
:10179000EE02FF20B9F2C730D105A1F660E0F801F2
:1017A00081810E947402D7CFDF91CF911F910F9159
:1017B000FF90EF900895EF92FF921F93CF93DF93E6
:1017C00000D000D000D0CDB7DEB77C01162FFC01D1
:1017D0008281208130E03A83298360E00E94E10128
:1017E00061E089810E94E10184E090E00E94EE02C4
:1017F000612F70E0660F771F616841E0C7010E94AA
:10180000910BC7010E94590B182F60E089810E943B
:10181000E10184E090E00E94EE02812F26960FB64F
:10182000F894DEBF0FBECDBFDF91CF911F91FF9027
:10183000EF9008951F93CF93DF93FC01D62F142FC1
:10184000C22F60834183228360E08D2F0E94E101DB
:1018500061E08D2F0E94740260E0812F0E9474026B
:1018600060E08C2F0E94E10161E08C2F0E947402E5
:10187000DF91CF911F910895AF92BF92CF92EF92D7
:101880000F93FC0170876783448323830283E18283
:10189000C082B682A5820F91EF90CF90BF90AF909B
:1018A00008958823A4F0282F30E0359527953595A5
:1018B000279535952795359527952370922F990F64
:1018C000990F290F922F990F8F70890F0895282F44
:1018D00030E035952795359527953595279535959C
:1018E0002795359527952170922F990F290F922FC3
:1018F000990F990FE9CF9DEC899F912D1124969511
:1019000096959695292F220F220F290F322F330FEC
:10191000282F231B30E1939FC0011124822B0895AF
:10192000CF92DF92EF92FF920F931F93CF93DF93AB
:10193000CDB7DEB72F970FB6F894DEBF0FBECDBF81
:101940006C01EF82F88609871A872B873C875E87B0
:1019500060E00E94DB0B182F1078F6018281208155
:1019600030E03A83298360E00E94E10161E08981EF
:101970000E94E10184E090E00E94EE0240E06EEB04
:10198000C6010E94910B8F810E947B0C682F612BF6
:1019900040E0C6010E94910B88850E947B0C40E0CC
:1019A000682FC6010E94910B89850E947B0C40E044
:1019B000682FC6010E94910B8A850E947B0C40E033
:1019C000682FC6010E94910B8B850E947B0C40E022
:1019D000682FC6010E94910B8C850E947B0C40E011
:1019E000682FC6010E94910B8E85805D0E947B0C42
:1019F00040E0682FC6010E94910B40E060E0C60104
:101A00000E94910B60E089810E94E10184E090E0F6
:101A10000E94EE022F960FB6F894DEBF0FBECDBF28
:101A2000DF91CF911F910F91FF90EF90DF90CF90BA
:101A30000895282F22952F70922F990F990F920FAA
:101A4000292F220F8F70820F08956F927F928F92AD
:101A50009F92AF92BF92CF92EF920F93CF93DF936B
:101A600000D000D000D0CDB7DEB73C014B01FB0168
:101A70008281208130E03A83298360E00E94E10185
:101A800061E089810E94E10184E090E00E94EE0221
:101A9000AA24A394B12CC12CE12C00E021E041E068
:101AA00063E378E0C3010E943C0C41E06FEBC401AA
:101AB0000E94910BC4010E94590B8F770E94190D4F
:101AC000F3018083C4010E94590B0E94190DF30198
:101AD0008183C4010E94590B0E94510CF30182833F
:101AE000C4010E94590B0E94190DF3018383C401A4
:101AF0000E94590B0E94190DF3018483C4010E94B6
:101B0000590B0E94190D90E0F30196838583C4015F
:101B10000E94590B0E94190D90E08053984FF301D9
:101B20009087878360E089810E94E10184E090E0F2
:101B30000E94EE02C30126960FB6F894DEBF0FBED8
:101B4000CDBFDF91CF910F91EF90CF90BF90AF902D
:101B50009F908F907F906F900895EF92FF920F93D8
:101B60001F93CF93DF9300D000D000D0CDB7DEB766
:101B70007C01162F042FFC0122814181608130E01D
:101B800050E070E0CE0101960E94410B612F70E0A1
:101B9000660F771F606840E0C7010E94910B40E02C
:101BA000602FC7010E94910B60E089810E94E101D2
:101BB00084E090E00E94EE0226960FB6F894DEBF15
:101BC0000FBECDBFDF91CF911F910F91FF90EF908E
:101BD00008950F931F93CF938C01C62F60E00E944E
:101BE000DB0B8F774C2F479544274795482B60E0B8
:101BF000C8010E94AD0DCF911F910F910895462FFE
:101C000047954427479567E00E94AD0D08951F93BF
:101C1000CF93DF93EC01162F6C818CEF94E00E9440
:101C200060016C85612BE091FC04F091FD04019052
:101C3000F081E02D8CEF94E009958CEF94E00E9408
:101C40002B04DF91CF911F9108950F931F93CF9392
:101C50008C01C62F64600E94070E81E090E00E9414
:101C6000EE026C2F6B7FC8010E94070E82E390E0AA
:101C70000E94EE02CF911F910F9108951F93CF9371
:101C8000DF93EC01162F0E94070E612FCE010E94F8
:101C9000250EDF91CF911F910895EF92FF920F9340
:101CA0001F93CF937C01C42F862F807F90E1699F83
:101CB00080011124682F642BC7010E943E0E6C2FF7
:101CC000602BC7010E943E0ECF911F910F91FF9094
:101CD000EF90089528E0FC01248760E00E94070E41
:101CE0000895FC016681262F246026836C6040E005
:101CF0000E944D0E0895CF93DF93CDB7DEB728979E
:101D00000FB6F894DEBF0FBECDBF28E0E6E5F1E0E8
:101D1000DE01119601900D922A95E1F7FC012085D4
:101D2000241710F44FEF420F50E0440F551F21E0ED
:101D300030E02C0F3D1F420F531FFA012081620F2C
:101D4000606840E00E944D0E28960FB6F894DEBF02
:101D50000FBECDBFDF91CF91089540E062E00E94B9
:101D60004D0E80ED97E00E94EE020895CF93DF9331
:101D7000EC0140E061E00E944D0E80ED97E00E9492
:101D8000EE028985811103C0DF91CF91089540E073
:101D900060E0CE010E947B0EF7CFCF93DF93EC0182
:101DA000423018F08D8188608D834887222319F096
:101DB000413009F447C062E370E080E090E00E94A7
:101DC0002F046C85CE010E94070E68EE73E080E060
:101DD00090E00E942F0460E3CE010E943E0E84E951
:101DE00091E10E94EE0260E3CE010E943E0E84E982
:101DF00091E10E94EE0260E3CE010E943E0E86E970
:101E000090E00E94EE0260E2CE010E943E0E6D81E3
:101E1000606240E0CE010E944D0E84E08E83CE01D0
:101E20000E94710ECE010E94B60E82E08F8340E0C8
:101E300066E0CE010E944D0ECE010E94AD0EDF91F4
:101E4000CF9108958D8184608D83B5CFCF93DF933B
:101E5000EC018CEF94E00E9461021D8220E04B8532
:101E60006A85CE010E94CD0EDF91CF9108950E9428
:101E7000260F0895FC01138212828AE691E0918375
:101E8000808311866483428723871486089541E006
:101E90000E944D0E81E090E00895089590E080E06A
:101EA0000895019709F008956F3F7F4FE1F726E00D
:101EB0004BE068E08CEE93E00E94200BF4CFCF92D1
:101EC000DF92EF92FF920F931F938091EB038111AA
:101ED00007C01F910F91FF90EF90DF90CF90089572
:101EE0000E9467040091E7031091E8032091E90341
:101EF0003091EA036B017C01C01AD10AE20AF30AAD
:101F0000970186010C3211402105310510F36093D1
:101F1000E7037093E8038093E9039093EA038091C9
:101F2000E60391E089278093E603882369F061E066
:101F300082E00E94E1018091E603882339F060E0AD
:101F400083E00E94E101C5CF60E0F2CF61E0F8CF0D
:101F50008093EB03882359F00E9467046093E703A2
:101F60007093E8038093E9039093EA03089560E097
:101F700082E00E94E10160E083E00E94E1011092B2
:101F8000E603089561E082E00E94740261E083E06C
:101F90000E94740260E082E00E94E10160E083E060
:101FA0000E94E1010895892B11F083E0089582E0F9
:101FB0000895CF93611108C0C0E00E94D30F6C2F29
:101FC0000E94E101CF910895C1E0F7CF60E08CEE6F
:101FD00093E00E94090A089540E060E08CEE93E0EF
:101FE0000E94650A089567E38CEE93E00E94080B57
:101FF0000895CF92DF92EF92FF926C01990FEE0855
:10200000FF08A70196016CED75E086E00E9445058A
:10201000C701B6010E942F0486E00E949404FF903D
:10202000EF90DF90CF900895019709F008956F3FEA
:102030007F4FE1F725E044E069E083EE93E00E9402
:102040001A0CF4CFAF92BF92CF92EF92FF920F9300
:102050001F93CF93DF93CDB7DEB729970FB6F894D0
:10206000DEBF0FBECDBF962FBA01AA24A394B12C18
:10207000CE2CE02E022F282F492FCE0101960E9450
:102080003C0CE980FA800B811C812D813E814F81BF
:102090005885698583EE93E00E94900C29960FB6CF
:1020A000F894DEBF0FBECDBFDF91CF911F910F918E
:1020B000FF90EF90CF90BF90AF900895CF93DF93B4
:1020C000CDB7DEB767970FB6F894DEBF0FBECDBFB2
:1020D00063EE73E0CE0108960E94250D8B85898BF7
:1020E0008C858A8B8F8598899C8B8B8B8A858D8B31
:1020F00089858E8B88858F8B87E0FE017196DE0146
:10210000119601900D928A95E1F729813A814B81D0
:102110005C816D817E818F8190E067960FB6F89427
:10212000DEBF0FBECDBFDF91CF910895FC012781A7
:102130003085295E374081E02631310508F480E0A2
:10214000089560E771E78BE891E808958F929F9278
:10215000AF92BF92EF92FF920F931F93CF93DF93B3
:102160007C010E9467044B015C0110E000E004C0A8
:10217000CE0DDF1D2C8B1F5F143008F03FC0C12F28
:10218000D0E0FE01EE59FE4F80810E94B40121E0B3
:10219000009709F020E0892B59F7F701EC0FFD1F9C
:1021A00084898111E5CFFE013196EE0FFF1FEE0FFE
:1021B000FF1FEE0DFF1D80819181A281B381B501CA
:1021C000A401481B590B6A0B7B0BDB01CA0180354C
:1021D0009105A105B10560F2FE01E25AFE4F808132
:1021E000082BFE013196EE0FFF1FEE0FFF1FEE0DC5
:1021F000FF1D80829182A282B382BACF002321F098
:10220000F7018081082B0083DF91CF911F910F91FF
:10221000FF90EF90BF90AF909F908F90089501979F
:1022200009F008956F3F7F4FE1F722E040E167E258
:1022300084ED93E00E943A0FF4CF84ED93E00E9486
:10224000B60E089584ED93E00E94370F84ED93E07D
:102250000E946A0E84ED93E00E94B60E089585ED0B
:102260008093BC004091090550910A0560910B05CF
:1022700070910C05495F5F4F6F4F7F4F689412F864
:1022800076956795579547951694D1F78091BC0040
:1022900084FF1FC08091090590910A05A0910B054C
:1022A000B0910C05892B8A2B8B2B81F3411551059D
:1022B0006105710549F08AE28A95F1F700C0415045
:1022C000510961097109E2CF809108050E9440021D
:1022D00008951092560508956115710581F0FB016E
:1022E00001900020E9F73197AF01461B570BDC0145
:1022F000ED91FC910280F381E02D0995089590E025
:1023000080E00895CF93DF93EA01482F84ED93E0B6
:102310000E947B0EBE0184ED93E00E946C11DF9160
:10232000CF9108957F928F929F92AF92BF92CF925A
:10233000DF92EF92FF920F931F93CF93DF93CDB76E
:10234000DEB761970FB6F894DEBF0FBECDBF8C012C
:10235000FC01F0801082E95BFF4F808181117CC01D
:10236000F801EE5BFF4F8081882359F0349780811C
:102370009181A281B381181619061A061B060CF466
:10238000EBC0F801FE9660817181828193812CE31C
:1023900030E040E050E00E94891FD22EC32EE42E90
:1023A000B52EA62E972E882E792E0E941D11F8018B
:1023B000EE5BFF4F8081882309F4F8C086E991E045
:1023C0009F938F937F928F929F92AF92BF92EF9243
:1023D000CF92DF9284EE91E09F938F93AE014F5F97
:1023E0005F4F6A015F934F930E94DA21A60160E07C
:1023F00080E00E948211F801EE5BFF4F80810FB6F2
:10240000F894DEBF0FBECDBF882309F4D2C04EE9D9
:1024100051E060E081E00E948211F2FCCDC0F3FC4B
:10242000E7C0F801FE9680819181A281B3811816E0
:1024300019061A061B060CF0F2C0181619061A0621
:102440001B060CF437C1F801EE5BFF4F8081811150
:1024500025C182E090E049C060E081E090E00E9408
:10246000D90F0E941D11F80185AD8F9384AD8F9314
:1024700080EC91E09F938F939E012F5F3F4F690106
:102480003F932F930E94DA21A60160E080E00E9432
:10249000821143ED51E060E081E00E9482110F90D3
:1024A0000F900F900F900F900F90F0FE0CC0F8015E
:1024B00084AD95AD8336910514F082E690E00196E7
:1024C000F80195AF84AFF1FE0AC0F80184AD95AD77
:1024D00082309105F4F00197F80195AF84AFF2FCDA
:1024E0001BC0F3FEE4C090E080E061960FB6F89464
:1024F000DEBF0FBECDBFDF91CF911F910F91FF9037
:10250000EF90DF90CF90BF90AF909F908F907F9093
:10251000089582E090E0DFCFF801A4ADB5AD2CE3E3
:1025200030E00E94AE1FFE966083718382839383A6
:10253000349681E08083359610820E946704F8010A
:10254000ED5BFF4F608371838283938361E081E061
:1025500090E00E94D90FC5CF0E946704F801ED5B9F
:10256000FF4F80809180A280B3809B01AC0128192D
:1025700039094A095B0949015A0138EE831633E0EB
:102580009306A104B10408F4FCCE608371838283B6
:102590009383359780819181A281B3810197A109AD
:1025A000B10980839183A283B383EBCE8AE991E062
:1025B00007CF4FEA51E02DCF6801F2E4CF0ED11CD6
:1025C000F601608181E06827608381E090E00E94ED
:1025D000D90FF6018081882309F421CF0E94670476
:1025E000F801ED5BFF4F608371838283938317CF84
:1025F000F801EE5BFF4F1082359681E0808381E029
:1026000090E0F80195AF84AFFE961082118212829D
:10261000138260E00E94D90F90E080E066CF34968C
:10262000208121110ACF0E941D1149EF51E060E085
:1026300080E00E948211F12CF2E0FF1560F088E743
:1026400090E00E94F90F64E670E080E090E00E9464
:102650002F04F394F1CFC8010E94A610F8018081E5
:102660001082811107C064E170E080E090E00E9478
:102670002F04F1CFE95BFF4F81E0808381E090E0A0
:10268000F80195AF84AFFE961082118212821382F8
:1026900060E00E94D90F90E080E027CF108260E0D8
:1026A00081E090E00E94D90F82E090E01ECF82E0AE
:1026B00090E01BCF82E090E018CF4F925F926F9234
:1026C0007F928F929F92AF92BF92CF92DF92EF92C2
:1026D000FF920F931F93CF93DF93CDB7DEB7619730
:1026E0000FB6F894DEBF0FBECDBF8C01FC01F080A9
:1026F0001082F2FE28C0E85BFF4F8081882389F1B9
:102700000E946704F801E85BFF4F81809280A380FC
:10271000B4809B01AC01281939094A095B094901B8
:102720005A0185819681A781B085880E991EAA1EBF
:10273000BB1E85829682A782B086108260E081E00F
:1027400090E00E94D90FF1FC1DC0F0FCD6C0F3FE52
:1027500030C0F801E95BFF4F81E0808382E090E0C8
:10276000CEC00E946704F801E85BFF4F618372836B
:102770008383948381E0808361E081E090E00E9424
:10278000D90FE1CF680138E4C30ED11CF6011082E5
:1027900015821682178210860E946704F6016183F3
:1027A00072838383948360E081E090E00E94D90F7C
:1027B000CCCFF801E85BFF4F85809680A780B0847E
:1027C0008081811185C0C501B40124E630E040E07C
:1027D00050E00E94671F29013A01C501B40120E6BB
:1027E0003AEE40E050E00E94671F69017A01C5019E
:1027F000B40128EE33E040E050E00E94671FCA01B8
:10280000B9012CE330E040E050E00E94671FB62E93
:10281000A72E982E892EC301B2012AE030E040E0B5
:1028200050E00E94671FF4E6CF16D104E104F104E2
:1028300090F069E070E080E090E00F2EFBE3BF2EA7
:10284000F02DA12C912C812C0F2EF3E6CF2ED12C24
:10285000E12CF12CF02DF801E85BFF4F20812223C1
:1028600009F448C026E931E03F932F939F938F935B
:102870007F936F938F929F92AF92BF92FF92EF924E
:10288000DF92CF928AE092E09F938F938E010F5F49
:102890001F4F1F930F930E94DA210E941D11A80160
:1028A00060E080E00E94821140E252E060E081E05E
:1028B0000E94821160E570E080E090E00E942F04A9
:1028C0000FB6F894DEBF0FBECDBF83E090E017C017
:1028D0000E946704F801E85BFF4FC180D280E3806B
:1028E000F4806C197D098E099F09860E971EA81E1B
:1028F000B91E69CF2AE931E0B7CF90E080E0619658
:102900000FB6F894DEBF0FBECDBFDF91CF911F9100
:102910000F91FF90EF90DF90CF90BF90AF909F907E
:102920008F907F906F905F904F9008958F929F92BD
:10293000AF92BF92CF92DF92EF920F931F93CF93FC
:10294000DF93CDB7DEB7A2970FB6F894DEBF0FBE08
:10295000CDBF6C018C01015D1F4FFC0180A9882354
:10296000E9F10E946704F60100AD11AD22AD33AD6F
:102970004B015C01801A910AA20AB30A95018401F5
:10298000083C11052105310508F4E2C060AF71AFC4
:1029900082AF93AF87A5813009F47FC0A0F1823068
:1029A00009F497C027A996A985A91F922F931F9272
:1029B0009F931F928F9386E792E09F938F931F922E
:1029C00081E18F93CE0142969F938F930E94AA211B
:1029D0000FB6F894DEBF0FBECDBF30C00E945E10B0
:1029E000F80122833383448355836683778380870A
:1029F000F60117A681E080AB10AE11AE12AE13AE99
:102A00000E941D11AECF27A996A985A91F922F93C9
:102A10001F929F931F928F9381E392E09F938F93D6
:102A20001F9281E18F93CE0142969F938F930E94D4
:102A3000AA210FB6F894DEBF0FBECDBFAE014E5E29
:102A40005F4F60E080E00E948211F60187A584302C
:102A500009F49DC0853009F4B7C0833009F455C02E
:102A600092A981A924A92F9323A92F931F929F9301
:102A70001F928F938BEC92E09F938F931F9281E133
:102A80008F93CE0101969F938F930E94AA210FB638
:102A9000F894DEBF0FBECDBF54C027A996A985A963
:102AA0001F922F931F929F931F928F9388E492E01F
:102AB0009F938F931F9281E18F93CE0142969F93B4
:102AC0008F930E94AA210FB6F894DEBF0FBECDBF30
:102AD000B5CF27A996A985A91F922F931F929F93DF
:102AE0001F928F938FE592E09F938F931F9281E1C6
:102AF0008F93CE0142969F938F930E94AA210FB687
:102B0000F894DEBF0FBECDBF99CF92A981A924A9A9
:102B10002F9323A92F931F929F931F928F938CE83B
:102B200092E09F938F931F9281E18F93CE01019644
:102B30009F938F930E94AA210FB6F894DEBF0FBE19
:102B4000CDBFAE014F5F5F4F60E081E00E94821118
:102B5000F6011081108210FF6AC087A5823009F447
:102B600081C008F44EC0843009F48CC008F481C0E0
:102B7000853009F057C083A994A98333F8E09F07F3
:102B80000CF089C00196F60194AB83AB4BC092A9BF
:102B900081A924A92F9323A92F931F929F931F925A
:102BA0008F9381EA92E09F938F931F9281E18F939D
:102BB000CE0101969F938F930E94AA210FB6F8949D
:102BC000DEBF0FBECDBFBDCF92A981A924A92F938F
:102BD00023A92F931F929F931F928F9386EB92E0CE
:102BE0009F938F931F9281E18F93CE0101969F93C4
:102BF0008F930E94AA210FB6F894DEBF0FBECDBFFF
:102C0000A0CF882349F0813069F46CE386A90E9443
:102C10008C08F60186AB06C068E185A90E948C0885
:102C2000F60185ABF60110AE11AE12AE13AE11FF78
:102C30004BC0F60187A5823009F479C078F1843061
:102C400009F485C008F47AC08530C9F583A994A930
:102C5000853EF7E09F070CF483C00197F60194AB23
:102C600083AB2DC06CE387A90E948C08F60187AB6B
:102C7000D9CF81A98F3120F48F5FF60181ABD2CFFC
:102C800081E0FBCF82A98C3020F48F5FF60182AB0C
:102C9000C9CF81E0FBCF84EE97E075CF882349F060
:102CA000813069F46CE386A90E948508F60186AB41
:102CB00006C068E185A90E948508F60185ABF6018A
:102CC00010AE11AE12AE13AE12FF0DC0F60187A505
:102CD00090E0019666E070E00E94531F87A710AE57
:102CE00011AE12AE13AE13FF3EC0F601E7A806A95F
:102CF00025A943A954A962A981A90E942210F6011D
:102D000010AA0E941D1190E080E0A2960FB6F894E0
:102D1000DEBF0FBECDBFDF91CF911F910F91EF901E
:102D2000DF90CF90BF90AF909F908F9008956CE30D
:102D300087A90E948508F60187ABC1CF81A982309F
:102D400020F08150F60181ABBACF8FE1FBCF82A991
:102D5000823020F08150F60182ABB1CF8CE0FBCF06
:102D600083E398E07BCF85E090E0CFCF9F92AF9256
:102D7000BF92CF92DF92EF92FF920F931F93CF9368
:102D8000DF93CDB7DEB7A9970FB6F894DEBF0FBEBD
:102D9000CDBF8C010E9467046B017C01F801848D1A
:102DA000958DA68DB78DA7019601281B390B4A0B6F
:102DB0005B0BDA01C901803D9740A105B10500F523
:102DC000F801808D918DA28DB38DA7019601281BEE
:102DD000390B4A0B5B0BDA01C901883C9105A1054F
:102DE000B10508F5F8018081108280FDF6C081FDF3
:102DF00008C182FD09C183FDEDC090E080E0EFC015
:102E0000C48ED58EE68EF78E0E94EC0FF80160A37B
:102E100071A382A393A30E94E60FF80164A375A394
:102E200086A397A3CDCFC08ED18EE28EF38E0E9463
:102E30005E102BA33CA34DA35EA36FA378A789A725
:102E4000F801C0A0D1A0E2A0F3A0A7019601C7019C
:102E5000B6010E94812181117FC099A4A8A4BFA0BE
:102E6000C701B6010E9450207F936F931F929F92DB
:102E70001F92AF921F92BF9280EE92E09F938F932A
:102E80001F9281E18F93CE0142969F938F930E9470
:102E9000AA210FB6F894DEBF0FBECDBFAE014E5EC5
:102EA0005F4F60E080E00E948211F801C4A0D5A0CD
:102EB000E6A0F7A0A7019601C701B6010E948121F3
:102EC000811166C0ACA0BBA0C701B6010E94502012
:102ED0007F936F938EA18F938DA18F931F92AF924B
:102EE0001F92BF928EE093E09F938F931F9281E198
:102EF0008F93CE0101969F938F930E94AA210FB6C4
:102F0000F894DEBF0FBECDBFAE014F5F5F4F60E0F4
:102F100081E00E948211F801638190E080E00E94CC
:102F2000D90FF8018381882329F02FA191812917D6
:102F300009F44BC0F80110A680E0882309F452CFB1
:102F400089A581114FCFF80180A581114BCF81E078
:102F500080A781E090E043C029A598A58FA11F928A
:102F60002F931F929F931F928F9387EF92E09F93CF
:102F70008F931F9281E18F93CE0142969F938F93FF
:102F80000E94AA210FB6F894DEBF0FBECDBF86CF38
:102F90009CA18BA12EA12F932DA12F931F929F93C4
:102FA0001F928F9384E293E09F938F931F9281E10E
:102FB0008F93CE0101969F938F930E94AA210FB603
:102FC000F894DEBF0FBECDBF9FCF28A592812913F5
:102FD000B1CFB3CF84E090E002C085E090E0A99645
:102FE0000FB6F894DEBF0FBECDBFDF91CF911F911A
:102FF0000F91FF90EF90DF90CF90BF90AF909F9098
:10300000089583E090E0EBCF86E090E0E8CF1F9357
:10301000CF93DF93EC01198181E090E00E943D1F86
:10302000181729F0612F81E090E00E94451F1A8156
:1030300082E090E00E943D1F181729F0612F82E086
:1030400090E00E94451F8B8181111BC0C0E083E08E
:1030500090E00E943D1FC81729F06C2F83E090E09C
:103060000E94451F90E080E00E943D1F823429F0BD
:1030700062E490E080E00E94451FDF91CF911F91B4
:103080000895C1E0E4CF8F929F92AF92BF92CF920A
:10309000DF92EF920F93CF93DF93CDB7DEB76197B7
:1030A0000FB6F894DEBF0FBECDBF6C010E941D119C
:1030B0004AE353E060E080E00E9482114BE453E079
:1030C00060E081E00E9482118CE00E94B401892BB3
:1030D00009F0ABC0F601EF5AFF4F80819181A281C8
:1030E000B381892B8A2B8B2BC1F10E946704F601D7
:1030F000EF5AFF4F80809180A280B3809B01AC018A
:10310000281939094A095B0949015A01CA01B9015B
:10311000660F771F881F991F660F771F881F991FDB
:10312000660F771F881F991F660F771F881F991FCB
:1031300028EB3BE040E050E00E94671FBA01A90184
:10314000413151056105710520F040E150E060E03A
:1031500070E080E090E0DC0115C00E946704F60199
:10316000EF5AFF4F6083718382839383BECF30E237
:10317000E1E0F0E0EC0FFD1FE80FF91F308301964E
:10318000A11DB11D80319105A105B10538F4841749
:103190009507A607B70758F733E2EACF198AAE01B9
:1031A0004F5F5F4F60E081E00E94821138EB831631
:1031B0003BE09306A104B104A8F1F601EF5AFF4FDA
:1031C000108211821282138287E0F60181831282BB
:1031D0001382C6010E940718E12C00E020E04AEEAD
:1031E00057E061E081E00E94221060E090E080E022
:1031F0000E94D90F60E081E090E00E94D90F0E9408
:103200001D114CE553E060E080E00E9482116CEDFE
:1032100075E080E090E00E942F04F601108290E0BB
:1032200080E011C084E090E00EC0F601EF5AFF4F3D
:103230001082118212821382F6018081108280FF37
:1032400013C090E080E061960FB6F894DEBF0FBE29
:10325000CDBFDF91CF910F91EF90DF90CF90BF90D6
:10326000AF909F908F90089584E090E0ECCFCF9244
:10327000DF92EF92FF920F931F93CF93DF93CDB71F
:10328000DEB761970FB6F894DEBF0FBECDBF8C01DD
:10329000FC0182A5882309F4A1C00E946704F801FB
:1032A000C3A4D4A4E5A4F6A49B01AC012C193D0948
:1032B0004E095F0969017A0138ECC316D104E104B3
:1032C000F104A8F163A774A785A796A781A581112A
:1032D00092C08381882309F48BC08DE693E0F801C6
:1032E000328121819F938F931F923F931F922F933F
:1032F00085E793E09F938F931F9281E18F93CE0197
:1033000001969F938F930E94AA210FB6F894DEBF77
:103310000FBECDBFAE014F5F5F4F60E080E00E9407
:10332000821141EB53E060E081E00E948211F801DC
:10333000F0801082F0FE13C081A5882309F4A6C096
:10334000F80181A5813009F4A8C0F80181A5823077
:1033500009F4AAC0F80113A614A615A616A6F1FE34
:1033600014C0F80181A5882309F4A3C0F80181A540
:10337000813009F4A5C0F80181A5823009F4A7C005
:10338000F80113A614A615A616A6F2FE0DC0F801A4
:1033900081A590E0019663E070E00E94531F81A731
:1033A00013A614A615A616A6F3FE96C0C8010E9481
:1033B0000718F80112A60E941D1190E080E06196A6
:1033C0000FB6F894DEBF0FBECDBFDF91CF911F9136
:1033D0000F91FF90EF90DF90CF90089511A681E0BC
:1033E00082A713A614A615A616A60E941D1155CFD6
:1033F00081E793E074CF813011F18381882309F450
:1034000042C08DE693E0F801328121819F938F9332
:103410001F923F931F922F938DE993E09F938F9379
:103420001F9281E18F93CE0101969F938F930E940B
:10343000AA210FB6F894DEBF0FBECDBF6BCF83813C
:103440008823F1F08DE693E0F801328121819F938A
:103450008F931F923F931F922F9389E893E09F933E
:103460008F931F9281E18F93CE0101969F938F934B
:103470000E94AA210FB6F894DEBF0FBECDBF4ACF7F
:1034800081E793E0E1CF81E793E0BDCF68E18181FF
:103490000E948C08F801818353CF6CE382810E94E3
:1034A0008C08F801828351CF838191E0892783833F
:1034B00051CF68E181810E948508F801818356CF50
:1034C0006CE382810E948508F801828354CF838156
:1034D00091E08927838354CF86E090E070CFCF932B
:1034E000DF93EC0181E00E94A80F84E690E00E9447
:1034F000F90F6AEF70E080E090E00E942F0488816D
:10350000188280FD2BC081FF2FC08A8125E0280F03
:103510002C3350F029EC280F898190E0019668E166
:1035200070E00E94531F89832A83CE010E940718EE
:1035300080E00E94A80F0E941D1142EC53E060E061
:1035400080E00E9482116CED75E080E090E00E94C6
:103550002F0490E080E0DF91CF91089580E00E94F9
:10356000A80F90E080E0F7CF81E090E0F4CF80E01A
:1035700091E00E94A6100E945F0FE091E103F0919C
:10358000E203E730F10508F049C0E753F54E0C942B
:10359000A81FD01AD91AE21AEB1AF41AFD1A061B40
:1035A00080E091E00E94B6169093E2038093E103DD
:1035B000089580E091E00E946F1A9093E203809357
:1035C000E103089580E091E00E9492119093E2035C
:1035D0008093E103089580E091E00E945D13909351
:1035E000E2038093E103089580E091E00E94431894
:1035F0009093E2038093E103089580E091E00E94BC
:1036000096149093E2038093E103089580E091E0A3
:103610000E9437199093E2038093E10308950F937A
:103620001F93CF93DF93EC0190E080E00E943D1F59
:10363000823449F087E089831A821B82DF91CF911F
:103640001F910F91089581E090E00E943D1F082F87
:1036500082E090E00E943D1F182F83E090E00E94DE
:103660003D1F083108F007E009831C3308F010E023
:103670001A8391E0811101C090E09B83DFCF9F927C
:10368000AF92BF92CF92DF92EF92FF920F931F9370
:10369000CF93DF93CDB7DEB76A970FB6F894DEBF4E
:1036A0000FBECDBF60E083EE93E00E94FF0D60E0AF
:1036B00083EE93E00E94E90D0E94A11069837A8352
:1036C0008B839C831D821E821F8218866894CC2463
:1036D000C4F8D12C04E010E07E0185E0E80EF11C76
:1036E0000115110581F05701EFEFAE1ABE0AC601B0
:1036F0000E943D1FF701808301501109FFEFCF1A8F
:10370000DF0A7501EDCF63EE73E0CE0109960E94EA
:10371000250D4D815E816F81788589819A81AB818C
:10372000BC81481759076A077B0731F4CE01099617
:103730000E9496108823F1F1AA24A394B12CC12CE5
:10374000E12C0CE027E145E06AEE77E0CE014296FD
:103750000E943C0CEA88FB880C891D892E893F89D0
:10376000488D598D6A8D83EE93E00E94900C00E1A4
:1037700010E06894EE24E2F8F12CFE01319607C0C7
:10378000E1E0EE1AF10885010F5F1F4FF601E11429
:10379000F10481F058016F018FEFC81AD80A9080A8
:1037A000C8010E943D1F981659F3692DC8010E9457
:1037B000451FE6CF6A960FB6F894DEBF0FBECDBFA9
:1037C000DF91CF911F910F91FF90EF90DF90CF90FD
:1037D000BF90AF909F90089526E040E855E260E0EA
:1037E00070E08FEF93E00E94880762E087E00E941C
:1037F000740262E08AE00E94740262E08BE00E9440
:10380000740262E08CE00E94740261E086E00E9433
:10381000740260E086E00E94E1010E94C20F0E94F3
:10382000F30F0E9422110E943F1B80E091E00E9452
:103830000F1B08956FEF7FEF81E090E00E947A0107
:103840006FEF7FEF81E090E00E940B076FEF7FEF5B
:1038500081E090E00E94510F6FEF7FEF81E090E0F8
:103860000E9414106FEF7FEF81E090E00E940F1133
:1038700008951F920F920FB60F9211242F933F932A
:103880004F935F936F937F938F939F93AF93BF9368
:10389000EF93FF93E091B900E87FE93C08F0D5C0D1
:1038A000F0E0EB5AF34E0C94A81F1A1E251D251D9F
:1038B000251D251D251D251D251D1E1D251D251DFF
:1038C000251D251D251D251D251D1E1D251D251DEF
:1038D000251D251D251D251D251D361D251D251DC7
:1038E000251D251D251D251D251D5C1D251D251D91
:1038F000251D251D251D251D251D361D251D251DA7
:10390000251D251D251D251D251D621D251D251D6A
:10391000251D251D251D251D251D681D251D251D54
:10392000251D251D251D251D251D7A1D251D251D32
:10393000251D251D251D251D251DA41D251D251DF8
:10394000251D251D251D251D251D6E1D251D251D1E
:10395000251D251D251D251D251D881D251D251DF4
:10396000251D251D251D251D251DA71D251D251DC5
:10397000251D251D251D251D251DA71D251D251DB5
:10398000251D251D251D251D251DA71D251D251DA5
:10399000251D251D251D251D251DA71D251D251D95
:1039A000251D251D251D251D251DB01D251D251D7C
:1039B000251D251D251D251D251DE11D251D251D3B
:1039C000251D251D251D251D251DB01D251D251D5C
:1039D000251D251D251D251D251DE11D251D251D1B
:1039E000251D251D251D251D251DC81D251D251D24
:1039F000251D251D251D251D251DE51D251D251DF7
:103A0000251D251D251D251D251DE51D251D251DE6
:103A1000251D251D251D251D251DFA1D251D251DC1
:103A2000251D251D251D251D251D141E251D251D96
:103A3000251D251D251D251D251D141E80917B0579
:103A40008093BB0081E00E949300FF91EF91BF91B2
:103A5000AF919F918F917F916F915F914F913F9126
:103A60002F910F900FBE0F901F90189590917A058F
:103A700080917905981768F080915805811119C0D7
:103A800081E08093570584EA8093BC00109256052C
:103A9000DCCFE0917A0581E08E0F80937A05F0E02B
:103AA000E75AFA4F80818093BB0081E00E94930027
:103AB000CCCF0E942F11C9CF80E2809355050E9480
:103AC0002F11C3CF80E3809355050E942F11BDCFE6
:103AD00088E3809355050E948D00B7CFE0917A0569
:103AE00081E08E0F80937A05F0E08091BB00E75A69
:103AF000FA4F808390917A0580917905981720F488
:103B000081E00E949300A1CF80E00E9493009DCFAE
:103B1000E0917A0581E08E0F80937A05F0E0809144
:103B2000BB00E75AFA4F808380915805811109C084
:103B300081E08093570584EA8093BC00109256057B
:103B400084CF0E942F1181CF0E942F117ECF83E05E
:103B5000809356051092540581E00E94930075CF22
:103B600080915405803280F4E091540581E08E0FFD
:103B700080935405F0E08091BB00EC5CFA4F8083A9
:103B800081E00E94930061CF80E00E9493005DCFAE
:103B90000E948D0080915405803230F4E0915405EC
:103BA000F0E0EC5CFA4F10826091540570E0E09117
:103BB0003205F091330584E395E0099510925405A0
:103BC00044CF80E00E94930040CF84E0809356056C
:103BD0001092310510923005E0912E05F0912F05DD
:103BE000099580913005811105C081E080933005F1
:103BF00010920E05E091310581E08E0F8093310522
:103C0000F0E0E25FFA4F80818093BB009091310534
:103C100080913005981720F481E00E94930015CF21
:103C200080E00E94930011CF81E00E9493001092E7
:103C300056050BCF109255050E942F1106CF1F92EB
:103C40000F920FB60F9211240F931F932F933F9350
:103C50004F935F936F937F938F939F93AF93BF9394
:103C60000091AE041091AF042091B0043091B104E2
:103C70009091AD04B901A8014F5F5F4F6F4F7F4F27
:103C800083E0890F8D3740F086E8890FB901A801DC
:103C90004E5F5F4F6F4F7F4F8093AD044093AE04F4
:103CA0005093AF046093B0047093B1048091B20458
:103CB0009091B304A091B404B091B5040196A11DF4
:103CC000B11D8093B2049093B304A093B404B09355
:103CD000B504BF91AF919F918F917F916F915F914B
:103CE0004F913F912F911F910F910F900FBE0F9009
:103CF0001F9018950E94B3020E94EC1B0E94B71AF5
:103D00000E947908FBCF1F920F920FB60F921124D9
:103D10002F933F934F935F936F937F938F939F93D3
:103D2000AF93BF93EF93FF938091A9049091AA045E
:103D3000A091AB04B091AC04892B8A2B8B2BD1F1D1
:103D40009091A804E091A604F091A70480818927AE
:103D500080838091A9049091AA04A091AB04B091B2
:103D6000AC04181619061A061B069CF48091A904C7
:103D70009091AA04A091AB04B091AC040197A10961
:103D8000B1098093A9049093AA04A093AB04B093C3
:103D9000AC04FF91EF91BF91AF919F918F917F9173
:103DA0006F915F914F913F912F910F900FBE0F90A8
:103DB0001F901895809155010E949404EACF1F929C
:103DC0000F920FB60F9211242F933F934F935F934F
:103DD0006F937F938F939F93AF93BF93EF93FF93D3
:103DE0008FEF93E00E94EA07FF91EF91BF91AF91AF
:103DF0009F918F917F916F915F914F913F912F9103
:103E00000F900FBE0F901F9018951F920F920FB634
:103E10000F9211242F938F939F93AF93BF93EF93A0
:103E2000FF93E0910F04F0911004808182FD14C093
:103E3000EFEFF3E0A689B7892C91818D8F5F8F73A7
:103E4000928D891771F0DF01E18DF0E0E150FC4FB8
:103E5000258F59968C9305C0E0911504F0911604B6
:103E60008081FF91EF91BF91AF919F918F912F91A1
:103E70000F900FBE0F901F901895F999FECF92BD2D
:103E800081BDF89A992780B50895262FF999FECF1C
:103E90001FBA92BD81BD20BD0FB6F894FA9AF99A67
:103EA0000FBE0196089597FB072E16F4009407D0D5
:103EB00077FD09D00E94C01F07FC05D03EF4909505
:103EC00081959F4F0895709561957F4F0895A1E268
:103ED0001A2EAA1BBB1BFD010DC0AA1FBB1FEE1F84
:103EE000FF1FA217B307E407F50720F0A21BB30BCF
:103EF000E40BF50B661F771F881F991F1A9469F74B
:103F000060957095809590959B01AC01BD01CF01A6
:103F10000895052E97FB1EF400940E94A01F57FDE4
:103F200007D00E94671F07FC03D04EF40C94A01F1B
:103F300050954095309521953F4F4F4F5F4F0895D5
:103F400090958095709561957F4F8F4F9F4F089505
:103F5000EE0FFF1F0590F491E02D09940E94D41FED
:103F6000B7FF0895821B930B08950E94D41FA59F4D
:103F7000900DB49F900DA49F800D911D1124089564
:103F8000AA1BBB1B51E107C0AA1FBB1FA617B7077F
:103F900010F0A61BB70B881F991F5A95A9F780959B
:103FA0009095BC01CD010895A29FB001B39FC001BF
:103FB000A39F700D811D1124911DB29F700D811D55
:103FC0001124911D08955058BB27AA270E94FB1F5A
:103FD0000C94DA200E94CC2038F00E94D32020F0EC
:103FE00039F49F3F19F426F40C94C9200EF4E0959F
:103FF000E7FB0C94C320E92F0E94EB2058F3BA177B
:10400000620773078407950720F079F4A6F50C94EE
:104010000D210EF4E0950B2EBA2FA02D0B01B90146
:1040200090010C01CA01A0011124FF27591B99F02E
:10403000593F50F4503E68F11A16F040A22F232F3A
:10404000342F4427585FF3CF469537952795A7958A
:10405000F0405395C9F77EF41F16BA0B620B730B31
:10406000840BBAF09150A1F0FF0FBB1F661F771FA2
:10407000881FC2F70EC0BA0F621F731F841F48F457
:10408000879577956795B795F7959E3F08F0B0CFE0
:104090009395880F08F09927EE0F979587950895C7
:1040A0000E9457206894B1110C940E2108950E942B
:1040B000F32088F09F5798F0B92F9927B751B0F0A7
:1040C000E1F0660F771F881F991F1AF0BA95C9F79C
:1040D00014C0B13091F00E940D21B1E008950C940C
:1040E0000D21672F782F8827B85F39F0B93FCCF3BF
:1040F000869577956795B395D9F73EF49095809519
:10410000709561957F4F8F4F9F4F0895E89409C038
:1041100097FB3EF490958095709561957F4F8F4FFA
:104120009F4F9923A9F0F92F96E9BB279395F69510
:10413000879577956795B795F111F8CFFAF4BB0F8E
:1041400011F460FF1BC06F5F7F4F8F4F9F4F16C0F2
:10415000882311F096E911C0772321F09EE8872F7C
:10416000762F05C0662371F096E8862F70E060E038
:104170002AF09A95660F771F881FDAF7880F9695B1
:10418000879597F9089597F99F6780E870E060E058
:1041900008959FEF80EC089500240A9416161706E0
:1041A00018060906089500240A9412161306140628
:1041B00005060895092E0394000C11F4882352F08B
:1041C000BB0F40F4BF2B11F460FF04C06F5F7F4F43
:1041D0008F4F9F4F089557FD9058440F551F59F02A
:1041E0005F3F71F04795880F97FB991F61F09F3FE4
:1041F00079F087950895121613061406551FF2CF0D
:104200004695F1DF08C0161617061806991FF1CF5C
:1042100086957105610508940895E894BB27662783
:104220007727CB0197F908950E9427210C94DA2073
:104230000E94CC2038F00E94D32020F0952311F06A
:104240000C94C3200C94C92011240C940E210E94BC
:10425000EB2070F3959FC1F3950F50E0551F629FBF
:10426000F001729FBB27F00DB11D639FAA27F00DCF
:10427000B11DAA1F649F6627B00DA11D661F829FF6
:104280002227B00DA11D621F739FB00DA11D621FDB
:10429000839FA00D611D221F749F3327A00D611DF8
:1042A000231F849F600D211D822F762F6A2F1124DA
:1042B0009F5750409AF0F1F088234AF0EE0FFF1F0D
:1042C000BB1F661F771F881F91505040A9F79E3F64
:1042D000510580F00C94C3200C940E215F3FE4F351
:1042E000983ED4F3869577956795B795F795E795BA
:1042F0009F5FC1F7FE2B880F911D9695879597F9C3
:1043000008950E948621880B990B0895990F000843
:10431000550FAA0BE0E8FEEF16161706E807F90797
:10432000C0F012161306E407F50798F0621B730B32
:10433000840B950B39F40A2661F0232B242B252BB3
:1043400021F408950A2609F4A140A6958FEF811D56
:10435000811D0895AEE0B0E0E0EBF1E20C94892419
:104360000D891E898F89988D26E02C831A830983F5
:1043700097FF02C080E090E801979E838D83AE0195
:10438000455E5F4F698D7A8DCE0101960E94FD21B9
:104390004D815E8157FD0AC02F8138854217530732
:1043A0000CF49A01020F131FF80110822E96E4E01C
:1043B0000C94A524AEE0B0E0E0EEF1E20C94892488
:1043C0000D891E8986E08C831A8309838FEF9FE70E
:1043D0009E838D83AE01475E5F4F6F89788DCE01DE
:1043E00001960E94FD212F813885020F131FF801CD
:1043F00010822E96E4E00C94A524ABE0B0E0E3E05C
:10440000F2E20C947B247C013B018A01FC011782BF
:104410001682838181FFC8C1CE0101965C01F7013C
:104420009381F30193FD859193FF81913F0188234F
:1044300009F453C1853239F493FD859193FF81913D
:104440003F01853229F4B70190E00E94ED23E7CFC8
:10445000912C212C312CFFE1F31538F08B3211F126
:1044600090F4803209F1833229F137FC3CC020ED11
:10447000280F2A3050F536FE20C08AE0989E200D85
:104480001124922E06C08D3291F0803371F768941A
:1044900030F8F30193FD859193FF81913F018111E4
:1044A000DACF21C0689431F8689432F8F2CF68947A
:1044B00033F8EFCF689434F8ECCFEAE02E9E200D6D
:1044C0001124222E689435F8E4CF8E3229F436FC7C
:1044D00004C1689436F8DDCF8C3619F4689437F847
:1044E000D8CF8836B1F2982F9F7D95549330E0F065
:1044F0008336A1F18337C1F1833509F063C0280108
:10450000F2E04F0E511CF801C080D180692D70E09F
:1045100036FC02C06FEF7FEFC6010E94D7234C012B
:10452000689437F882010AC00C5F1F4FFFE3F983DC
:1045300088248394912C6501E89437F833FE2DC0CC
:10454000522C8114910471F5552009F468CFB701FC
:1045500080E290E00E94ED235A94F6CFF80180812A
:1045600089830E5F1F4FE4CF2801F2E04F0E511CEC
:10457000F801C080D180692D70E036FC02C06FEF79
:104580007FEFC6010E94E2234C018201D5CFB70123
:1045900080E290E00E94ED232A942814190409F087
:1045A000B0F7CECFF60137FC859137FE81916F01D0
:1045B000B70190E00E94ED2351105A94F1E08F1A58
:1045C0009108BFCF843619F0893609F077C0F80119
:1045D00037FE6BC060817181828193810C5F1F4FB8
:1045E000F32DFF763F2E97FF09C09095809570952B
:1045F00061957F4F8F4F9F4F689437F82AE030E0E6
:10460000A5010E941D24C82ECA188C2C432C36FEEE
:104610000CC0E89440F8C91440F434FE05C032FCE4
:1046200003C0F32DFE7E4F2E892C44FE95C0FE0163
:10463000EC0DF11D8081803309F087C0242D297E87
:10464000422E842D8870582E43FC95C040FE8FC0AA
:104650009C2C821418F42C0C922C981844FE91C0B7
:10466000B70180E390E00E94ED2342FE09C088E795
:1046700090E041FE02C088E590E0B7010E94ED2382
:10468000C91408F48AC0CA94D12C9FEFC91AD90A58
:10469000CA0CDB1CF60182916F01B70190E00E9409
:1046A000ED23AC14BD04B1F74FCF60817181072EAB
:1046B000000C880B990B0E5F1F4F92CFD32CE89400
:1046C000D4F82AE030E0853739F1232D297FD22E26
:1046D0008F3601F148F48835A9F0F701868197817A
:1046E0002B96E2E10C949724803749F08837A9F79C
:1046F000D4FE02C06894D2F820E130E00DC0689486
:10470000D4F8F6CF34FE03C0822F8660D82E20E185
:1047100032E002C028E030E0F801D7FE0FC060812F
:104720007181828193810C5F1F4FA5010E941D241E
:10473000C82ECA183D2CE89437F867CF6081718184
:1047400090E080E00E5F1F4FF0CF42FC02C08394E8
:1047500078CF8394839475CF842D867809F471CFB4
:10476000F6CFB70180E290E00E94ED23839482149B
:10477000C0F3512C73CF522C5818821408F46ECF0A
:10478000F8CF842D867809F47BCF8BE241FE80E25E
:1047900047FC8DE2B70190E071CFB70180E390E074
:1047A0000E94ED239A946CCF8FEF9FEF99CFFC017D
:1047B0000590615070400110D8F7809590958E0F4C
:1047C0009F1F0895FC016150704001900110D8F7BF
:1047D000809590958E0F9F1F08950F931F93CF93F1
:1047E000DF93182F092FEB018B8181FD09C01FEF8B
:1047F0000FEF812F902FDF91CF911F910F9108958F
:1048000082FF14C02E813F818C819D81281739073A
:104810003CF4E881F981CF01019699838883108364
:104820008E819F8101969F838E83E3CFE885F985F2
:10483000812F0995892BA1F3DACFFA01AA27283015
:1048400051F1203181F1E8946F936E7F6E5F7F4F5D
:104850008F4F9F4FAF4FB1E03ED0B4E03CD0670FD9
:10486000781F891F9A1FA11D680F791F8A1F911D2C
:10487000A11D6A0F711D811D911DA11D20D009F47C
:1048800068943F912AE0269F11243019305D3193BE
:10489000DEF6CF010895462F4770405D4193B3E0A7
:1048A0000FD0C9F7F6CF462F4F70405D4A3318F04E
:1048B000495D31FD4052419302D0A9F7EACFB4E0FF
:1048C000A6959795879577956795BA95C9F70097B7
:1048D0006105710508959B01AC010A2E0694579558
:1048E000479537952795BA95C9F7620F731F841FAF
:1048F000951FA01D08952F923F924F925F926F9245
:104900007F928F929F92AF92BF92CF92DF92EF925F
:10491000FF920F931F93CF93DF93CDB7DEB7CA1BE0
:10492000DB0B0FB6F894DEBF0FBECDBF09942A880B
:10493000398848885F846E847D848C849B84AA84B3
:10494000B984C884DF80EE80FD800C811B81AA8140
:10495000B981CE0FD11D0FB6F894DEBF0FBECDBF0B
:08496000ED010895F894FFCF6A
:104968000007000000000000000000000000000038
:10497800000000000000000000000000000000002F
:104988000000C07F0000C07F0000000000000000A1
:10499800000000000000000000000000010000000E
:1049A80000000000000000010000000000000000FE
:1049B8000000000000FF0000400014005400010245
:1049C8000408070A0B0C00000000470FDB064E0F17
:1049D8004D0F000000000C08DB063E075608710763
:1049E8004F076307000000002F01FF004E0FD4009F
:1049F800F800E400D50052554E00504155004B33A5
:104A080070617573652020204B3465786974004B9C
:104A180033726573756D6520204B34657869740051
:104A280054696D6572207365742025303264206D79
:104A3800696E004B312B204B322D204B33676F2092
:104A48004B34580054696D6572202530326C643AD5
:104A58002530326C6420257300202054494D4520B0
:104A6800495320555021202020005357202530320B
:104A78006C753A2530326C752E256C7520257300BF
:104A88004B3158204B327273204B33676F204B34B5
:104A9800003C253032643E3A253032643A253032C3
:104AA8006420204B346F6B00253032643A3C25304B
:104AB80032643E3A2530326420204B346F6B002537
:104AC8003032643A253032643A3C253032643E2034
:104AD800204B346F6B00253032643A253032643A0B
:104AE800253032642020204B346F6B003C25303257
:104AF800643E2E253032642E253034642020202058
:104B080000253032642E3C253032643E2E25303468
:104B1800642020202000253032642E253032642E77
:104B28003C253034643E2020202000253032642E7D
:104B3800253032642E2530346420202020202000A7
:104B4800253032643A253032643A253032642020E8
:104B580054253364432000253032643A25303264CA
:104B68003A253032642020542D2D2D432000253045
:104B780032642E253032642E2530346420482533A3
:104B880064252500253032642E253032642E2530E8
:104B9800346420482D2D2D252500486F6C64204B4A
:104BA8003420746F207265736574004B313A20634A
:104BB800616E63656C20202020202000526573659B
:104BC8007420646F6E65212020202020004F4E2025
:104BD800004F46460057616B65203C253032643EE5
:104BE8003A253032642025730057616B65202530E3
:104BF80032643A3C253032643E2025730057616B9D
:104C08006520253032643A25303264203C25733ED5
:104C1800004B312B204B322D204B333E204B346F31
:104C28006B00536E6F6F7A65202B35206D696E208F
:044C38002020000038
:00000001FF
