:100000000C9463000C948B000C948B000C948B006C
:100010000C948B000C948B000C948B000C94C60AEF
:100020000C948B000C948B000C948B000C948B0024
:100030000C948B000C948B000C948B000C948B0014
:100040000C947C0A0C948B000C94480B0C94220B9F
:100050000C948B000C948B000C948B000C948B00F4
:100060000C945D090C948B00020000000024002712
:10007000002A0000000000250028002B00000000DE
:1000800000230026002900040404040404040402DC
:100090000202020202030303030303010204081025
:1000A00020408001020408102001020408102000F2
:1000B0000000080002010000030407000000000027
:1000C000000000007A0B11241FBECFEFD8E0DEBF86
:1000D000CDBF12E0A0E0B1E0E2EAFCE202C0059090
:1000E0000D92AA38B107D9F724E0AAE8B2E001C01E
:1000F0001D92AA34B207E1F710E0C3E6D0E004C0D5
:100100002197FE010E946213C236D107C9F70E94EF
:10011000DF0B0C944F160C94000020914503260F22
:100120003327331F21323105ECF420916B03FC019E
:1001300090E080E0243069F082E00895A0914503CA
:100140002191AC014D5D5C4FA40FB52FB11D2C93D7
:100150000196861798F380914503680F60934503D5
:1001600080E0089581E00895089508950895E0914C
:100170001A0380911903E81730F4F0E0E750FD4FBF
:10018000808190E008958FEF9FEF089590911A037A
:10019000809119032FEF3FEF981748F4E92FF0E013
:1001A000E750FD4F208130E09F5F90931A03C90113
:1001B00008958091190390911A03891B990B089552
:1001C000CF92DF92EF92FF920F931F93CF93DF9323
:1001D0007C01CB018A012091F802222389F0EB01F6
:1001E0006B01C40ED51ECC15DD0569F06991D701F0
:1001F000ED91FC910190F081E02DC7010995F3CFBD
:10020000642F0E948D00C801DF91CF911F910F9143
:10021000FF90EF90DF90CF900895CF93DF931F92E0
:10022000CDB7DEB769832091F8022223F9F020913F
:100230001B03203258F021E030E0FC01338322839D
:1002400090E080E00F90DF91CF91089580911C03A2
:10025000E82FF0E0E852FD4F998190838F5F809303
:100260001C0380931B0381E090E0ECCF61E0CE01A2
:1002700001960E948D00F7CF833081F028F4813001
:1002800099F08230A9F008958730A9F08830C9F03C
:100290008430B1F4809180008F7D03C08091800014
:1002A0008F7780938000089584B58F7784BD0895FB
:1002B00084B58F7DFBCF8091B0008F778093B000A5
:1002C00008958091B0008F7DF9CFCF93DF93282FD1
:1002D00030E0F901E155FF4F8491F901E556FF4FF8
:1002E000D491F901E957FF4FC491CC23A1F08111BA
:1002F0000E943C01EC2FF0E0EE0FFF1FE358FF4F90
:10030000A591B491EC91ED2381E090E009F480E0B7
:10031000DF91CF91089580E090E0FACF1F93CF93C3
:10032000DF93282F30E0F901E155FF4F8491F90167
:10033000E556FF4FD491F901E957FF4FC491CC2303
:10034000A9F0162F81110E943C01EC2FF0E0EE0F76
:10035000FF1FED58FF4FA591B4918FB7F894EC9122
:10036000111108C0D095DE23DC938FBFDF91CF91B0
:100370001F910895DE2BF8CF10926B0381E08093DC
:100380006D0310926C0361E082E10E948E0161E0D6
:1003900083E10E948E01E9EBF0E080818E7F808313
:1003A00080818D7F808388E48093B80085E480938A
:1003B000BC000895CF93DF9391E0909322038823AC
:1003C000B9F0C091B800D091BA008091BC008A7B8E
:1003D0008093BC0060E082E10E948E0160E083E1D6
:1003E0000E948E010E94BC01D093BA00C093B80055
:1003F000DF91CF910895CF93DF9390E0FC01E55614
:10040000FF4F249189579F4FFC0184918823C9F0A5
:1004100090E0880F991FFC01E759FF4FA591B49117
:10042000FC01ED58FF4FC591D49161110DC09FB7EC
:10043000F8948C91209582238C938881282328839B
:100440009FBFDF91CF910895623051F49FB7F89428
:100450003C91822F809583238C93E8812E2BEFCFC4
:100460008FB7F894EC912E2B2C938FBFEACF3FB728
:10047000F8948091D4029091D502A091D602B091C7
:10048000D70226B5A89B05C02F3F19F00196A11DE4
:10049000B11D3FBFBA2FA92F982F8827BC01CD01CE
:1004A000620F711D811D911D42E0660F771F881F2D
:1004B000991F4A95D1F708958F929F92AF92BF925C
:1004C000CF92DF92EF92FF926B017C010E94370284
:1004D0004B015C01C114D104E104F104B9F00E94A4
:1004E0003702681979098A099B09683E73408105BA
:1004F000910580F321E0C21AD108E108F10888EEE5
:10050000880E83E0981EA11CB11CE4CFFF90EF90F1
:10051000DF90CF90BF90AF909F908F9008952FB7AE
:10052000F8946091D0027091D1028091D2029091A2
:10053000D3022FBF08959091000189130BC0E8E604
:10054000F0E0E4919FEF90930001E13049F028F052
:10055000E23061F060E00C948E0110926E00FACFF0
:1005600090916F009D7F90936F00F4CF90917000F9
:100570009D7F9093700091E09093B0009091B100B6
:10058000987F94609093B1001092B300E3CFAF9244
:10059000BF92CF92DF92EF92FF920F931F93CF9370
:1005A000DF936C017B018B01040F151FEB015E01D2
:1005B000AE18BF08C017D10759F06991D601ED9167
:1005C000FC910190F081E02DC6010995892B79F706
:1005D000C501DF91CF911F910F91FF90EF90DF90B8
:1005E000CF90BF90AF900895FC01538D448D252F7F
:1005F00030E0842F90E0821B930B541710F0CF96BD
:10060000089501970895FC01918D828D981761F0EE
:10061000A28DAE0FBF2FB11D5D968C91928D9F5F05
:100620009F73928F90E008958FEF9FEF0895FC01E4
:10063000918D828D981731F0828DE80FF11D858D97
:1006400090E008958FEF9FEF0895FC01918D228D2A
:10065000892F90E0805C9F4F821B91098F739927AF
:1006600008958DE993E00E94250321E0892B09F488
:1006700020E0822F089580E090E0892B29F00E94ED
:10068000310381110C9400000895FC01A48DA80F82
:10069000B92FB11DA35ABF4F2C91848D90E00196C4
:1006A0008F739927848FA689B7892C93A089B189E4
:1006B0008C91837080648C93938D848D981306C085
:1006C0000288F389E02D80818F7D80830895EF92E9
:1006D000FF920F931F93CF93DF93EC0181E0888FFC
:1006E0009B8D8C8D98131AC0E889F989808185FFCC
:1006F00015C09FB7F894EE89FF896083E889F9896E
:1007000080818370806480839FBF81E090E0DF916F
:10071000CF911F910F91FF90EF900895F62E0B8DC2
:1007200010E00F5F1F4F0F731127E02E8C8D8E117D
:100730000CC00FB607FCFACFE889F989808185FFE4
:10074000F5CFCE010E944503F1CFEB8DEC0FFD2FCD
:10075000F11DE35AFF4FF0829FB7F8940B8FEA899F
:10076000FB8980818062CFCFCF93DF93EC01888DAE
:100770008823B9F0AA89BB89E889F9898C9185FD1C
:1007800003C0808186FD0DC00FB607FCF7CF8C91AA
:1007900085FFF2CF808185FFEDCFCE010E9445031A
:1007A000E9CFDF91CF91089560E0FC0180810E9444
:1007B0008E018BE090E00197F1F70895CF93DF93DE
:1007C000EC01822F798368835B834A832C833D838A
:1007D00060E00E948E0161E088810E948E018BE0C2
:1007E00090E00197F1F7DF91CF910895CF92DF92DA
:1007F000EF92FF920F931F93CF93DF93FC01C4817D
:1008000021E02093F802C093A80210921C031092DA
:100810001B038485682B81E993E00E940D01D09130
:100820001B03D13208F092C00E9437026B017C0199
:1008300080916B03811165C082E080936B0381E03E
:1008400080936D038FEF80936A0310928F03D09390
:100850008E03A8EDB2E0EEE6F3E080E0D81385C0A9
:100860001092900380919003CC0FC82BC0939003FB
:1008700080916C03813009F07CC010926C030E945F
:1008800037026B017C01809190038093BB008091C3
:100890001E0390911F03A0912003B0912103892B87
:1008A0008A2B8B2B99F00E94370200911E03109126
:1008B0001F0320912003309121036C197D098E09BB
:1008C0009F090617170728073907E0F18091BC0038
:1008D00083FDD9CF85EC8093BC000E9437026B0169
:1008E0007C0180916B03823009F445C080916A03DA
:1008F0008F3F61F180916A03803241F180916A03F8
:1009000025C080911E0390911F03A0912003B091F8
:100910002103892B8A2B8B2B09F48ACF0E94370263
:1009200000911E0310911F03209120033091210399
:100930006C197D098E099F090617170728073907C3
:1009400008F076CF80911D030E94DA0110921C03FB
:1009500010921B031092F802DF91CF911F910F911B
:10096000FF90EF90DF90CF9008959D9191938F5FCE
:1009700075CF85EEB0CF80911E0390911F03A0919B
:100980002003B0912103892B8A2B8B2B09F4A9CF4B
:100990000E94370200911E0310911F032091200333
:1009A000309121036C197D098E099F0906171707DD
:1009B0002807390708F095CFC5CF089590E080E06B
:1009C000089560E082E00E948E0160E083E00E9472
:1009D0008E011092B0020895BF92CF92DF92EF92F3
:1009E000FF920F931F93CF93DF938C016C01990FAC
:1009F000EE08FF0880910001863091F08F3F39F1B9
:100A0000C701B6010E945C0286E0DF91CF911F9181
:100A10000F91FF90EF90DF90CF90BF900C949B02CE
:100A2000E8E6F0E0C491C7FDEBCF61E086E00E940C
:100A3000FB01CC2309F479C0C23009F09CC080913D
:100A4000B100887F83608093B100D5EA73C086E0EF
:100A500080930001E8E6F0E0C491CF3F89F2C13015
:100A600021F150F0C23009F43EC0C7FDC9CF61E0AA
:100A700086E00E94FB01E0CF14BC15BC84B5826007
:100A800084BD85B5816085BDEDE8F0E0E491F0E0DE
:100A9000EE0FFF1FED58FF4F85919491E1EAF0E0D2
:100AA000E491E0939F02C0E0C0CF109280001092CA
:100AB0008100809181008860809381008091810015
:100AC000816080938100EDE8F0E0E491F0E0EE0FCA
:100AD000FF1FED58FF4F85919491E1EAF0E0E4911A
:100AE000E0939E02A2CF1092B0001092B1008091CC
:100AF000B00082608093B0008091B10081608093EB
:100B0000B100EDE8F0E0E491F0E0EE0FFF1FED58EA
:100B1000FF4F859194919093AA028093A902E1EAF4
:100B2000F0E0E491E093AB0280CF85B5887F8360ED
:100B300085BDD2E5B12C28EB3BE0D8010E944713DC
:100B400028EE33E040E050E00E940613C130F9F097
:100B5000C23089F1C11154CFD7BD2093A402309384
:100B6000A5024093A6025093A70280916E00826076
:100B700080936E0045CFC13031F480918100887F31
:100B8000816080938100D4ED84E1B82ED4CF8D2F85
:100B90009B2D90938900809388002093A00230932E
:100BA000A1024093A2025093A30280916F00826041
:100BB00080936F0025CFD093B3002093AC02309385
:100BC000AD024093AE025093AF02809170008260FC
:100BD0008093700015CF4F925F926F927F92AF9289
:100BE000BF92CF92DF92EF92FF920F931F93CF931A
:100BF000DF930E948F022B013C0183E1A82E81E04C
:100C0000B82E9AE9C92E92E0D92E2AE8E22E22E0E7
:100C1000F22E01E010E0C0E0D5018D915D010E944F
:100C200065019C01D1E0892B09F0D0E0232B09F567
:100C3000F601808181111DC0D7014D915D916D91AB
:100C40007C91D301C201841B950BA60BB70BAC01A1
:100C5000BD01403551056105710558F0F801E25FAD
:100C6000FE4F8081C82BD7014D925D926D927C9290
:100C70001397F601D1936F010F5F1F4FF4E0EF0E52
:100C8000F11C0530110541F6CC2329F08091C802F2
:100C9000C82BC093C802DF91CF911F910F91FF9095
:100CA000EF90DF90CF90BF90AF907F906F905F906C
:100CB0004F9008951F93CF93DF9360E080913B04A2
:100CC0000E94FB0110E0D0E0C0E061E080913C04B4
:100CD0000E948E0160E080913C040E948E01809110
:100CE0003B040E94650199270C2E01C0880F0A94CD
:100CF000EAF7182B2196C830D10539F7812FDF91FB
:100D0000CF911F910895FF920F931F93CF93DF937D
:100D1000082FF62E61E080913B040E94FB01D0E099
:100D2000C0E010E0B8010C2E02C0759567950A94DA
:100D3000E2F7617080913B040E948E0161E0809136
:100D40003C040E948E0160E0FF2089F0C730D1058D
:100D500071F480913B040E94FB012196C830D105BB
:100D600009F7DF91CF911F910F91FF900895809126
:100D70003C040E948E01F1CFFF920F931F93CF93FB
:100D8000DF9300D000D000D0CDB7DEB78C0120912A
:100D90003C0430E040913B0450E060913A0470E044
:100DA000CE0101960E94DE0361E08FEB0E94830674
:100DB0000E945A06982F929597705AE0F52E8F70E0
:100DC0009F9D800D1124F80180830E945A06982F60
:100DD00092959F708F709F9D800D1124F8018183E3
:100DE0000E945A06282F30E087FF50C085FB22273B
:100DF00020F99CE0299F202D11248F70280FF801E5
:100E000022830E945A06982F92959F702AE0F22E14
:100E10008F709F9D800D1124F80183830E945A06D4
:100E2000982F92959F708F709F9D800D1124F801CF
:100E300084830E945A06982F92959F708F709F9D71
:100E4000800D112490E0F801968385830E945A0654
:100E5000982F92959F708F709F9D800D112490E028
:100E60008053984FF80190878783CE0101960E94A6
:100E7000D403C80126960FB6F894DEBF0FBECDBFCF
:100E8000DF91CF911F910F91FF90089544E0359528
:100E900027954A95E1F723702F9D202D1124ADCF82
:100EA0001F93CF93DF9300D000D000D0CDB7DEB733
:100EB000EAE3F4E0228130E0418150E0608170E0BB
:100EC000CE0101960E94DE0361E081E80E94830664
:100ED0000E945A06182FCE0101960E94D403812F3A
:100EE00026960FB6F894DEBF0FBECDBFDF91CF912F
:100EF0001F9108950F931F93CF93DF93CDB7DEB764
:100F00002F970FB6F894DEBF0FBECDBF0F831887A3
:100F100029873A874B875C877E870E945007082F76
:100F2000EAE3F4E0228130E0418150E0608170E04A
:100F3000CE0101960E94DE0360E08EEB0E948306E4
:100F40008F811AE0612F0E94E61240E1849F900198
:100F50001124892F822B007860E0802B0E94830669
:100F60008885612F0E94E612292F30E1839FC001FE
:100F7000112460E0822B0E9483068985612F0E94E4
:100F8000E612292F40E1849FC001112460E0822BEA
:100F90000E9483068A85612F0E94E612292F30E184
:100FA000839FC001112460E0822B0E9483068B8501
:100FB000612F0E94E612292F40E1849FC001112475
:100FC00060E0822B0E9483068C85612F0E94E612CE
:100FD000292F30E1839FC001112460E0822B0E9401
:100FE00083068E85805D612F0E94E612292F40E1E5
:100FF000849FC001112460E0822B0E94830660E080
:1010000080E00E948306CE0101960E94D4032F96B1
:101010000FB6F894DEBF0FBECDBFDF91CF911F9109
:101020000F9108950F931F93CF93DF9300D000D0BB
:1010300000D0CDB7DEB7182F062FEAE3F4E0228107
:1010400030E0418150E0608170E0CE0101960E9465
:10105000DE03812F880F60E080680E94830660E0D5
:10106000802F0E948306CE0101960E94D40326960B
:101070000FB6F894DEBF0FBECDBFDF91CF911F91A9
:101080000F9108950F931F93CF938C01C62F0E9449
:10109000F6036C2F6460C8010E94F6036C2F6B7F0F
:1010A000C8010E94F60383EC90E00197F1F7CF911D
:1010B0001F910F9108950F931F93CF93DF938C018E
:1010C000D62FC42F607F642B0E94420880E1D89FF6
:1010D000B00111246C2BC801DF91CF911F910F91AA
:1010E0000C944208CF93DF93CDB7DEB728970FB6A5
:1010F000F894DEBF0FBECDBF98E0E7E0F1E0DE017F
:10110000119601900D929A95E1F7909145049617EA
:1011100008F46FEF262F30E0220F331F41E050E03C
:101120004C0F5D1F240F351FF9016081680F606847
:1011300040E08DE394E028960FB6F894DEBF0FBE32
:10114000CDBFDF91CF910C945B0840E061E08DE36F
:1011500094E00E945B088BE39FE10197F1F7809197
:101160004604882321F060E080E00C947208089522
:101170000C94A50841E00E945B0881E090E008958E
:1011800085ED8093BC0080911E0390911F03A09178
:101190002003B09121030796A11DB11D23E0B69550
:1011A000A795979587952A95D1F72091BC0024FDA6
:1011B00003C010926B03089540911E0350911F03CA
:1011C0006091200370912103452B462B472B69F337
:1011D0000097A105B10541F02AE22A95F1F700C078
:1011E0000197A109B109E1CF80911D030C94DA01A7
:1011F000FF920F931F93CF93DF93EC01F62E08819C
:101200001981C8010E94D012F81621F06F2DC80173
:101210000E94D812CE01DF91CF911F910F91FF90C4
:1012200008950F931F93CF93DF9300D0CDB7DEB710
:1012300004E011E0F801608181E090E09A83898305
:10124000CE0101960E94F808F801618182E090E0E9
:101250009A838983CE0101960E94F808F801628181
:1012600083E090E09A838983CE0101960E94F8087A
:101270001A82198262E4CE0101960E94F8080F904A
:101280000F90DF91CF911F910F910895CF93DF932E
:10129000982F862FEA01692F0E947208FE010190A3
:1012A0000020E9F73197AF014C1B5D0BBE018DE3C8
:1012B00094E0DF91CF910C94C7021F920F920FB66A
:1012C0000F9211242F933F934F935F936F937F93CC
:1012D0008F939F93AF93BF93EF93FF938091B90048
:1012E000887F803609F44AC0F0F5883209F4A7C037
:1012F00018F5803109F49BC0B8F4882309F4F9C0CB
:10130000883009F494C0FF91EF91BF91AF919F9104
:101310008F917F916F915F914F913F912F910F909E
:101320000FBE0F901F901895883109F488C0803245
:1013300051F780936A0314C0803409F49DC040F4CF
:101340008033B9F38833F9F680936A0385ECB0C033
:10135000803509F485C0883509F496C0883499F63B
:101360000E94C008D0CF883909F48CC038F588377E
:1013700029F050F4883611F0803729F683E0809305
:101380006B031092690357C0883809F47BC0803919
:1013900019F0803809F0B7CF80916903803208F0E6
:1013A00071C0E091690381E08E0F809369038091A1
:1013B000BB00F0E0E75BFC4F80833DC0803B39F031
:1013C000E0F4803A09F479C0883A09F09CCF84E0CF
:1013D00080936B031092460310924503E091430300
:1013E000F091440309958091450381110FC081E07C
:1013F000809345031092230309C0803C09F4A6CFD3
:10140000883C09F4A3CF883B09F07DCFE0914603E7
:1014100081E08E0F80934603F0E0ED5DFC4F80810C
:101420008093BB00909146038091450329C0809131
:1014300090038093BB0085EC8093BC0064CF9091B7
:101440008F0380918E03981758F5E0918F0381E008
:101450008E0F80938F03F0E0E259FC4F8081E9CF3B
:10146000E0918F0381E08E0F80938F038091BB000A
:10147000F0E0E259FC4F808390918F0380918E03BE
:101480009817C8F285E8D8CFE0918F0381E08E0FDE
:1014900080938F038091BB00F0E0E259FC4F808382
:1014A00080916D0381115CCF81E080936C0384EAAD
:1014B0008093BC0010926B0326CF85EC8093BC0018
:1014C00010926B0380916903803230F4E0916903DC
:1014D000F0E0E75BFC4F10826091690370E0E091FF
:1014E0004703F091480389E493E00995109269035A
:1014F0000ACF10926A0334CF1F920F920FB60F9249
:1015000011242F933F938F939F93AF93BF93809119
:10151000D0029091D102A091D202B091D302309129
:10152000CF0223E0230F2D3758F50196A11DB11DE1
:101530002093CF028093D0029093D102A093D20245
:10154000B093D3028091D4029091D502A091D6029B
:10155000B091D7020196A11DB11D8093D402909342
:10156000D502A093D602B093D702BF91AF919F91BD
:101570008F913F912F910F900FBE0F901F90189554
:1015800026E8230F0296A11DB11DD2CF1F920F9204
:101590000FB60F9211242F933F934F935F936F9346
:1015A0007F938F939F93AF93BF93EF93FF9380911C
:1015B000AC029091AD02A091AE02B091AF02892B26
:1015C0008A2B8B2BD1F19091AB02E091A902F09183
:1015D000AA028081892780838091AC029091AD021C
:1015E000A091AE02B091AF02181619061A061B069A
:1015F0009CF48091AC029091AD02A091AE02B091AA
:10160000AF020197A109B1098093AC029093AD029A
:10161000A093AE02B093AF02FF91EF91BF91AF9153
:101620009F918F917F916F915F914F913F912F91FA
:101630000F900FBE0F901F901895809100010E948F
:101640009B02EACF1F920F920FB60F9211242F9395
:101650003F934F935F936F937F938F939F93AF933A
:10166000BF93EF93FF938DE993E00E944503FF91B1
:10167000EF91BF91AF919F918F917F916F915F910A
:101680004F913F912F910F900FBE0F901F90189583
:101690001F920F920FB60F9211242F938F939F9347
:1016A000EF93FF93E091AD03F091AE038081E09161
:1016B000B303F091B40382FD1BC090818091B60307
:1016C0008F5F8F732091B703821741F0E091B603CB
:1016D000F0E0E356FC4F958F8093B603FF91EF91B6
:1016E0009F918F912F910F900FBE0F901F90189583
:1016F0008081F4CFE1E9F3E01382128288EE93E077
:10170000A0E0B0E084839583A683B7832BE131E02A
:1017100031832083EDE9F3E0138212828483958381
:10172000A683B7838DE291E09183808385EC90E07E
:101730009587848784EC90E09787868780EC90E09B
:10174000918B808B81EC90E0938B828B82EC90E08C
:10175000958B848B86EC90E0978B868B118E128E06
:10176000138E148EEAE3F4E089E0808384E08183C1
:1017700085E0828360E089E00E948E0161E089E07B
:101780000E94FB0160E084E00E94FB0160E085E0D4
:101790000E948E0161E085E00E94FB01EDE3F4E030
:1017A000138212828FE391E091838083118687E216
:1017B000848380E1828782E0838714860895CF93B3
:1017C000DF93CDB7DEB7E3970FB6F894DEBF0FBE59
:1017D000CDBF789484B5826084BD84B5816084BDBA
:1017E00085B5826085BD85B5816085BD80916E00BF
:1017F000816080936E0010928100809181008260F0
:10180000809381008091810081608093810080912C
:1018100080008160809380008091B100846080931B
:10182000B1008091B00081608093B00080917A0017
:10183000846080937A0080917A00826080937A003D
:1018400080917A00816080937A0080917A0080682C
:1018500080937A001092C100E091AD03F091AE0345
:1018600082E08083E091A903F091AA031082E091C5
:10187000AB03F091AC038FEC80831092B503E09141
:10188000B103F091B20386E08083E091AF03F09161
:10189000B003808180618083E091AF03F091B00359
:1018A000808188608083E091AF03F091B0038081F4
:1018B00080688083E091AF03F091B00380818F7DD9
:1018C000808362E087E00E94FB0162E08AE00E9480
:1018D000FB0162E08BE00E94FB0162E08CE00E9471
:1018E000FB0161E086E00E94FB0160E086E00E946F
:1018F0008E0161E082E00E94FB0161E083E00E94D2
:10190000FB0160E082E00E948E0160E083E00E94C3
:101910008E0110921A031092190310921C03109258
:101920001B030E94BC0184EB90E0909344038093DE
:10193000430385EB90E09093480380934703109214
:10194000420480914804823018F098E09093420459
:101950008093450462E370E080E090E00E945C02C6
:10196000609149048DE394E00E94F60368EE73E011
:1019700080E090E00E945C0260E38DE394E00E94CE
:1019800042080BE416E4C8010197F1F760E38DE328
:1019900094E00E944208C8010197F1F760E38DE3EB
:1019A00094E00E94420883E592E00197F1F760E23B
:1019B0008DE394E00E94420860914204606240E03E
:1019C0008DE394E00E945B0884E08093430440E050
:1019D0006CE08DE394E00E945B080E94A50882E021
:1019E0008093440440E066E08DE394E00E945B084D
:1019F00040E062E08DE394E00E945B088BE39FE1AE
:101A00000197F1F788E08093490460E08DE394E06A
:101A10000E94F6030E94A50860E087E00E94120879
:101A20000E945007682F6F7780E00E94120880E7BD
:101A300091E7ABE8B1E88FA398A7A9A7BAA780E17F
:101A400090E00E94D0128BA381E190E00E94D0121E
:101A50008CA382E190E00E94D0128DA383E190E0FC
:101A60000E94D0128EA39E012E5E3F4F3EA72DA74F
:101A7000C9010E94BC068BA19CA1ADA1BEA180376B
:101A80009147AB48B14831F4898D9A8D895E974072
:101A9000469770F18AEE782F888787E0898785E0FE
:101AA0008D8387E18C838CE08B831A82198281E09D
:101AB000582F8E831F8200E010E02CE037E145E0D4
:101AC00060E087E00E947A077E0147E2E40EF11CA5
:101AD00000E110E01CA70BA7F70161917F01CE0187
:101AE0008B960E94F8080F5F1F4F0431110591F784
:101AF00090E080E00E94D012823409F460C087E058
:101B00008093040110920501109206017CE3272EB8
:101B1000312C412C512C9E012F5F3F4F39010E94E7
:101B2000EB058091B502882361F10E948F0200913C
:101B3000B1021091B2022091B3023091B4026B0154
:101B40007C01C01AD10AE20AF30A970186010C321D
:101B5000114021053105A8F06093B1027093B202E3
:101B60008093B3029093B4021091B00261E06127B8
:101B70006093B00282E00E948E01612F83E00E9498
:101B80008E010091CD021091CE020230110509F4B0
:101B900081C2A0F50115110509F4F2C0013011054B
:101BA00009F429C280E090E0892B09F4B8CF0E94A3
:101BB0003103882309F4B3CF0E940000ACCF81E049
:101BC00090E00E94D012082F82E090E00E94D01294
:101BD000182F83E090E00E94D012083108F007E04F
:101BE000009304011C3308F010E01093050191E00C
:101BF000811101C090E09093060188CF0330110558
:101C000009F4AAC30430110569F60E94B80841E638
:101C100052E060E080E00E94460942E752E060E066
:101C200081E00E9446098CE00E946501892B09F041
:101C300090C48091C9029091CA02A091CB02B09148
:101C4000CC02892B8A2B8B2B51F40E948F0260933C
:101C5000C9027093CA028093CB029093CC020E9477
:101C60008F02C090C902D090CA02E090CB02F090DF
:101C7000CC029B01AC012C193D094E095F09690199
:101C80007A01CA01B90124E0660F771F881F991FE6
:101C90002A95D1F728EB3BE040E050E00E94061384
:101CA000213131054105510520F020E130E040E0CF
:101CB00050E0FE01319680E090E0DC01BE2E7F2FE7
:101CC00063E282179307A407B50708F060E2619307
:101CD0000196A11DB11D80319105A105B10581F7C6
:101CE000198A4B2D572F60E081E00E94460938EB9E
:101CF000C3163BE0D306E104F10408F4A6C0109239
:101D0000C9021092CA021092CB021092CC0287E054
:101D10008093040110920501109206010E9411099E
:101D20008AEE782F898F87E08A8F81E08E8B8D8B6A
:101D30001C8A1B8A1A8A582F8F8B188E00E010E09D
:101D400020E031E041E060E087E00E947A0760E057
:101D500082E00E948E0160E083E00E948E010E947A
:101D6000B8084DE752E060E080E00E9446096CED63
:101D700075E080E090E00E945C021092C8025CC1B5
:101D8000C3010E94BC06CC80BD80A8849984DB80FE
:101D9000EA80F9800E94B8081F92FF921F92EF928A
:101DA0001F92DF9289E791E09F938F935EA55F93E7
:101DB0008DA58F930E947713AE014E5E5F4F64E056
:101DC00080E00E9446099F92AF921F92BF921F929D
:101DD000CF9288E891E09F938F939EA59F93EDA566
:101DE000EF930E947713AE014E5E5F4F63E081E098
:101DF0000E944609C09006016C2D82E00E948E016F
:101E00000FB6F894DEBF0FBECDBFCC2059F0809145
:101E100004018D1107C0809105018E1103C0FF20C0
:101E200009F4E3C068EC70E080E090E00E945C029E
:101E30008091C8021092C80280FDDAC081FF0AC0FA
:101E400081E08093030102E010E01093CE02009342
:101E5000CD02A8CE82FFC4C0912C4FEBA42E41E04E
:101E6000B42E5BEAC52E51E0D52E67E9E62E61E07F
:101E7000F62E0E94B80820910601809104019091ED
:101E80000501911059C0222309F453C027E431E021
:101E90003F932F931F929F931F928F93FF92EF92E6
:101EA0007F926F920E9477130FB6F894DEBF0FBE39
:101EB000CDBFA30160E080E00E94460943ED51E000
:101EC00060E081E00E94460964EB70E080E090E011
:101ED0000E945C020E94EB052091C8021092C80289
:101EE00020FF0CC091104BC08091040190E001963E
:101EF00068E170E00E94F2128093040121FF0AC0A1
:101F0000911057C080910401882309F450C081507A
:101F10008093040122FF08C0892D90E0019663E0C0
:101F200070E00E94F212982E23FFA3CF0E941109A5
:101F30008CCF2BE431E0ACCF51E0951210C02223BE
:101F400059F027E431E03F932F931F929F931F9204
:101F50008F93DF92CF92A4CF2BE431E0F4CF2223F2
:101F600059F027E431E03F932F931F929F931F92E4
:101F70008F93BF92AF9294CF2BE431E0F4CFF1E096
:101F80009F120BC08091050190E001966CE370E018
:101F90000E94F21280930501B1CF32E09312AECFCE
:101FA0008091060191E0892780930601A7CF87E100
:101FB000AFCF41E094120AC080910501882321F03F
:101FC000815080930501A6CF8BE3FBCF52E09512A1
:101FD000A1CF8091060191E08927809306019ACFD5
:101FE00083FF33CF04E010E030CF01E010E02DCFCD
:101FF00003E010E02ACF81E08093B5020E948F02B7
:102000006093B1027093B2028093B3029093B402D2
:1020100084E690E00E94EC046AEF70E080E090E0DB
:102020000E945C028091C8021092C80280FF07C023
:102030001092B5020E94E10410E000E006CF81FF9B
:1020400004CF8091050125E0280F2C3360F029ECA6
:10205000280F8091040190E0019668E170E00E94F1
:10206000F21280930401209305010E94110910923D
:10207000B5020E94E1040E94B80845EE51E060E01C
:1020800080E00E9446096CED75E080E090E00E94DF
:102090005C02D2CFC090C802CFA61092C802809135
:1020A0000301882309F470C060E083E00E948E0180
:1020B0000E94B808809102018F93809101018F9353
:1020C00083EF91E09F938F937F926F920E9477139B
:1020D000A30160E080E00E94460946E052E060E033
:1020E00081E00E9446090F900F900F900F900F9083
:1020F0000F90C0FE0EC080910101909102018336C5
:10210000910514F082E690E001969093020180938D
:102110000101DFA4D1FE0EC0809101019091020166
:102120008230910514F482E090E0019790930201CF
:1021300080930101EFA4E2FE23C0A0910101B091C0
:1021400002012CE330E00E9447136093BB027093BE
:10215000BC028093BD029093BE0281E08093BA02DC
:10216000109203010E948F026093B6027093B7022F
:102170008093B8029093B90261E083E00E948E01DF
:10218000FFA4F3FC59CF61CE8091BA02C090BB028C
:10219000D090BC02E090BD02F090BE02882309F40A
:1021A000E7C11C141D041E041F040CF0F0C10E94A2
:1021B0008F028090B6029090B702A090B802B090C3
:1021C000B9029B01AC01281939094A095B09490187
:1021D0005A0138EE831633E09306A104B10408F4E3
:1021E000D6C16093B6027093B7028093B802909301
:1021F000B902C701B6016150710981099109609363
:10220000BB027093BC028093BD029093BE02A201F8
:1022100091010E94281349015A016B017C010E941F
:10222000B8088FE491E09F938F93FF92EF92DF9233
:10223000CF92BF92AF929F928F9287E192E09F934D
:102240008F937F926F920E947713A30160E080E0EA
:102250000E9446090FB6F894DEBF0FBECDBF809135
:10226000BA0247E551E0811102C048E651E060E062
:1022700081E00E944609CFA4C2FE16C0F090BA02C7
:1022800081E0F826F092BA026F2D83E00E948E0161
:10229000FF2051F00E948F026093B6027093B70244
:1022A0008093B8029093B902DFA4D3FE18C01092B5
:1022B000BA0281E08093030181E090E090930201F3
:1022C000809301011092BB021092BC021092BD02D9
:1022D0001092BE0260E083E00E948E01ADCE80913C
:1022E000BB029091BC02A091BD02B091BE02181633
:1022F00019061A061B060CF4A8CD8091BA028111AA
:1023000024C00E94B8084CE252E060E080E00E94E5
:10231000460913E088E790E00E94EC0464E670E070
:1023200080E090E00E945C021150A1F70E94EB0552
:102330008091C8021092C8028111BBCF64E170E0A5
:1023400080E090E00E945C02F1CF1092BA0260E05F
:1023500083E00E948E0179CDF090C8021092C802ED
:10236000F2FE2FC08091C702882309F4D4C00E94D6
:102370008F02AB01BC018091BF029091C002A0917D
:10238000C102B091C2028090C3029090C402A0909A
:10239000C502B090C60288199909AA09BB09840F21
:1023A000951FA61FB71F8093BF029093C002A093F2
:1023B000C102B093C2021092C70260E083E00E94A3
:1023C0008E01F1FE18C01092C7021092BF02109247
:1023D000C0021092C1021092C2020E948F0260934A
:1023E000C3027093C4028093C5029093C60260E05A
:1023F00083E00E948E018F2D897009F01DCEC09060
:10240000BF02D090C002E090C102F090C2022091C1
:10241000C7022FA7222391F00E948F028090C3024F
:102420009090C402A090C502B090C602C818D90806
:10243000EA08FB08C60ED71EE81EF91EC701B60142
:1024400020E63AEE40E050E00E94061349015A01AE
:1024500034E683169104A104B10408F06BC0C701EF
:10246000B60128EE33E040E050E00E940613CA01B6
:10247000B901A20191010E94061368AB79AB8AAB46
:102480009BABC701B60124E630E040E050E00E947B
:102490000613CA01B9012AE030E040E050E00E9492
:1024A0000613CFA42FE431E0C11002C023E531E0D0
:1024B0003F932F939F938F937F936F93DBA8DF922C
:1024C000EAA8EF92F9A8FF92C8A8CF92BF92AF9264
:1024D0009F928F928AE392E09F938F937F926F9265
:1024E0000E9477130E94B808A30160E080E00E9478
:1024F000460940E552E060E081E00E94460960E55F
:1025000070E080E090E00E945C020FB6F894DEBFBD
:102510000FBECDBF9ACC0E948F026093C30270930E
:10252000C4028093C5029093C60281E08093C702E3
:1025300061E044CF69E070E080E090E04BE348ABBD
:1025400019AA1AAA1BAA33E6832E912CA12CB12C0E
:10255000A8CF1092C9021092CA021092CB02109218
:10256000CC028091C8021092C80280FD65CD6DCC6E
:10257000C701B601A20191010E94281349015A0125
:102580006B017C010E94B80883E591E04CCE60911C
:10259000BB027091BC028091BD029091BE0237CE09
:1025A000F999FECF92BD81BDF89A992780B508951B
:1025B000262FF999FECF1FBA92BD81BD20BD0FB65F
:1025C000F894FA9AF99A0FBE01960895991B79E04A
:1025D00004C0991F961708F0961B881F7A95C9F7B3
:1025E0008095089597FB072E16F4009407D077FD89
:1025F00009D00E944E1307FC05D03EF490958195BA
:102600009F4F0895709561957F4F0895A1E21A2E0E
:10261000AA1BBB1BFD010DC0AA1FBB1FEE1FFF1F86
:10262000A217B307E407F50720F0A21BB30BE40BD6
:10263000F50B661F771F881F991F1A9469F760951D
:102640007095809590959B01AC01BD01CF010895D7
:10265000052E97FB1EF400940E943F1357FD07D0F0
:102660000E94061307FC03D04EF40C943F135095C0
:102670004095309521953F4F4F4F5F4F089590956E
:102680008095709561957F4F8F4F9F4F08950E9461
:102690006813B7FF0895821B930B0895AA1BBB1BF9
:1026A00051E107C0AA1FBB1FA617B70710F0A61B52
:1026B000B70B881F991F5A95A9F780959095BC0173
:1026C000CD010895EE0FFF1F0590F491E02D0994C0
:1026D000A29FB001B39FC001A39F700D811D112463
:1026E000911DB29F700D811D1124911D0895AEE0C2
:1026F000B0E0EDE7F3E10C9426160D891E8986E023
:102700008C831A8309838FEF9FE79E838D83AE01AD
:10271000475E5F4F6F89788DCE0101960E949A13B4
:102720002F813885020F131FF80110822E96E4E0E6
:102730000C944216ABE0B0E0E0EAF3E10C9418161A
:102740007C013B018A01FC0117821682838181FF93
:10275000C8C1CE0101965C01F7019381F30193FD9D
:10276000859193FF81913F01882309F453C18532FC
:1027700039F493FD859193FF81913F01853229F4CE
:10278000B70190E00E948A15E7CF912C212C312CC3
:10279000FFE1F31538F08B3211F190F4803209F13A
:1027A000833229F137FC3CC020ED280F2A3050F548
:1027B00036FE20C08AE0989E200D1124922E06C07D
:1027C0008D3291F0803371F7689430F8F30193FD06
:1027D000859193FF81913F018111DACF21C06894E7
:1027E00031F8689432F8F2CF689433F8EFCF6894F8
:1027F00034F8ECCFEAE02E9E200D1124222E6894AE
:1028000035F8E4CF8E3229F436FC04C1689436F8EA
:10281000DDCF8C3619F4689437F8D8CF8836B1F20A
:10282000982F9F7D95549330E0F08336A1F1833744
:10283000C1F1833509F063C02801F2E04F0E511C4D
:10284000F801C080D180692D70E036FC02C06FEFC6
:102850007FEFC6010E9474154C01689437F882011D
:102860000AC00C5F1F4FFFE3F98388248394912CE7
:102870006501E89437F833FE2DC0522C8114910481
:1028800071F5552009F468CFB70180E290E00E940D
:102890008A155A94F6CFF801808189830E5F1F4F05
:1028A000E4CF2801F2E04F0E511CF801C080D18026
:1028B000692D70E036FC02C06FEF7FEFC6010E9409
:1028C0007F154C018201D5CFB70180E290E00E94D4
:1028D0008A152A942814190409F0B0F7CECFF6010E
:1028E00037FC859137FE81916F01B70190E00E941E
:1028F0008A1551105A94F1E08F1A9108BFCF84368F
:1029000019F0893609F077C0F80137FE6BC0608195
:102910007181828193810C5F1F4FF32DFF763F2ED3
:1029200097FF09C090958095709561957F4F8F4F67
:102930009F4F689437F82AE030E0A5010E94BA154D
:10294000C82ECA188C2C432C36FE0CC0E89440F8D4
:10295000C91440F434FE05C032FC03C0F32DFE7EE2
:102960004F2E892C44FE95C0FE01EC0DF11D808197
:10297000803309F087C0242D297E422E842D887053
:10298000582E43FC95C040FE8FC09C2C821418F436
:102990002C0C922C981844FE91C0B70180E390E073
:1029A0000E948A1542FE09C088E790E041FE02C0FD
:1029B00088E590E0B7010E948A15C91408F48AC01E
:1029C000CA94D12C9FEFC91AD90ACA0CDB1CF60194
:1029D00082916F01B70190E00E948A15AC14BD048A
:1029E000B1F74FCF60817181072E000C880B990BD6
:1029F0000E5F1F4F92CFD32CE894D4F82AE030E03A
:102A0000853739F1232D297FD22E8F3601F148F4F5
:102A10008835A9F0F701868197812B96E2E10C9425
:102A20003416803749F08837A9F7D4FE02C068947D
:102A3000D2F820E130E00DC06894D4F8F6CF34FE2F
:102A400003C0822F8660D82E20E132E002C028E049
:102A500030E0F801D7FE0FC06081718182819381DF
:102A60000C5F1F4FA5010E94BA15C82ECA183D2C35
:102A7000E89437F867CF6081718190E080E00E5F65
:102A80001F4FF0CF42FC02C0839478CF839483948D
:102A900075CF842D867809F471CFF6CFB70180E227
:102AA00090E00E948A1583948214C0F3512C73CF56
:102AB000522C5818821408F46ECFF8CF842D8678E3
:102AC00009F47BCF8BE241FE80E247FC8DE2B70147
:102AD00090E071CFB70180E390E00E948A159A944C
:102AE0006CCF8FEF9FEF99CFFC0105906150704044
:102AF0000110D8F7809590958E0F9F1F0895FC01C7
:102B00006150704001900110D8F7809590958E0F1C
:102B10009F1F08950F931F93CF93DF93182F092FB3
:102B2000EB018B8181FD09C01FEF0FEF812F902FEB
:102B3000DF91CF911F910F91089582FF14C02E81D4
:102B40003F818C819D81281739073CF4E881F98108
:102B5000CF0101969983888310838E819F8101968E
:102B60009F838E83E3CFE885F985812F0995892B93
:102B7000A1F3DACFFA01AA27283051F1203181F1EF
:102B8000E8946F936E7F6E5F7F4F8F4F9F4FAF4F75
:102B9000B1E03ED0B4E03CD0670F781F891F9A1F88
:102BA000A11D680F791F8A1F911DA11D6A0F711D3C
:102BB000811D911DA11D20D009F468943F912AE048
:102BC000269F11243019305D3193DEF6CF01089530
:102BD000462F4770405D4193B3E00FD0C9F7F6CF61
:102BE000462F4F70405D4A3318F0495D31FD405229
:102BF000419302D0A9F7EACFB4E0A69597958795BF
:102C000077956795BA95C9F700976105710508959D
:102C10009B01AC010A2E0694579547953795279549
:102C2000BA95C9F7620F731F841F951FA01D0895E1
:102C30002F923F924F925F926F927F928F929F92CC
:102C4000AF92BF92CF92DF92EF92FF920F931F93BA
:102C5000CF93DF93CDB7DEB7CA1BDB0B0FB6F8946B
:102C6000DEBF0FBECDBF09942A88398848885F84AB
:102C70006E847D848C849B84AA84B984C884DF801C
:102C8000EE80FD800C811B81AA81B981CE0FD11D00
:102C90000FB6F894DEBF0FBECDBFED010895F894D6
:022CA000FFCF64
:102CA200FF01000107000000004000140054000171
:102CB200020408070A0B0C000000000D01E000DE10
:102CC20004B600D900C600B700000000006703C7C1
:102CD20002F402B40325030303170300000000BA41
:102CE20008C702DE04DD044F4E20004F4646005264
:102CF200554E00504155004B33706175736520206D
:102D0200204B3465786974004B33726573756D6559
:102D120020204B346578697400253032643A2530BE
:102D220032643A2530326400253032642E25303246
:102D3200642E253034640057616B65203C253032A7
:102D4200643E3A253032642025730057616B65205A
:102D5200253032643A3C253032643E2025730057D8
:102D6200616B6520253032643A25303264203C257F
:102D7200733E004B312B204B322D204B333E3E20F5
:102D82004B346F6B00536E6F6F7A65202B35206D5D
:102D9200696E0054696D6572207365742025303246
:102DA20064206D696E004B312B204B322D204B334A
:102DB200676F204B34580054696D6572202530329C
:102DC2006C643A2530326C6420257300202054490B
:102DD2004D4520495320555021005357202530326C
:102DE2006C753A2530326C752E256C752025730072
:102DF2004B327265736574204B33676F204B3158C9
:102E020000486F6C64204B3420746F2072657365C8
:102E120074004B313A2063616E63656C00526573D6
:0A2E2200657420646F6E65210000E6
:00000001FF
